{
	"data": {
		"bytecode": {
			"linkReferences": {},
			"object": "60806040525f6004555f6005555f600655600a60085560146009556032600a556032600b5534801561002f575f80fd5b50604051612f9b380380612f9b83398101604081905261004e916103fc565b338061007457604051631e4fbdf760e01b81525f60048201526024015b60405180910390fd5b61007d816101c5565b50600180546001600160a01b03199081169091556002805482169055600380549091169055600a60088190556014600955603290819055600b55670de0b6b3a7640000600755604051632d19987560e01b81523060048201525f90632d199875906024015f604051808303815f87803b1580156100f8575f80fd5b505af115801561010a573d5f803e3d5ffd5b5050600254604051632d19987560e01b81523060048201526001600160a01b039091169250632d19987591506024015f604051808303815f87803b158015610150575f80fd5b505af1158015610162573d5f803e3d5ffd5b50505050610178620f423f61021460201b60201c565b600c80546001600160a01b0319169055610194620f423f6102d0565b600d80546001600160a01b03929092166001600160a01b0319928316179055600e805490911690555061043c915050565b5f80546001600160a01b038381166001600160a01b0319831681178455604051919092169283917f8be0079c531659141344cd1fd0a4f28419497f9722a3daafe3b4186f6b6457e09190a35050565b61021c610375565b6040805146602080830191909152818301849052825180830384018152606090920190925280519101205f81604051610254906103d4565b8190604051809103905ff5905080158015610271573d5f803e3d5ffd5b506001600160a01b0381165f81815260106020908152604091829020805460ff1916600117905590519182529192507fe3758539c1bd6726422843471b2886c2d2cefd3b4aead6778386283e20a32a80910160405180910390a1505050565b6040805146602080830191909152818301849052825180830384018152606090920190925280519101205f905f6103056103a3565b6040517fff0000000000000000000000000000000000000000000000000000000000000060208201526001600160601b03193060601b166021820152603581018490526055810182905290915060750160408051601f198184030181529190528051602090910120949350505050565b5f546001600160a01b031633146103a15760405163118cdaa760e01b815233600482015260240161006b565b565b5f604051806020016103b4906103d4565b6020820181038252601f19601f8201166040525080519060200120905090565b61062f8061296c83390190565b80516001600160a01b03811681146103f7575f80fd5b919050565b5f805f6060848603121561040e575f80fd5b610417846103e1565b9250610425602085016103e1565b9150610433604085016103e1565b90509250925092565b612523806104495f395ff3fe608060405260043610610228575f3560e01c8063ad0ca90611610129578063d0ebdbe7116100a8578063de9095601161006d578063de90956014610663578063e0e59c4f14610682578063e4105ed5146106a1578063f2fde38b146106c0578063fde327be146106df575f80fd5b8063d0ebdbe7146105d3578063d5009584146105f2578063d71051f014610606578063db3543f514610625578063dbe2193f14610644575f80fd5b8063c21a43e4116100ee578063c21a43e414610556578063c40cb8541461056b578063c54e44eb14610580578063ca0dcf161461059f578063cc0111b9146105b4575f80fd5b8063ad0ca906146104ce578063b583e370146104e2578063b6add0f414610501578063b6b4f84514610516578063b8823cec14610541575f80fd5b806375a81dd3116101b55780638e3695311161017a5780638e369531146103fe57806398d5fdca146104735780639bbe5e7814610487578063a2bc6cdf146104a6578063a81a72a4146104ba575f80fd5b806375a81dd31461037a578063780900dc146103995780637b210b4d146103b8578063898fdf94146103cd5780638da5cb5b146103e2575f80fd5b8063432ed419116101fb578063432ed419146102c75780634fb320b2146102ea5780635e5c06e21461030957806370563d6b14610347578063715018a614610366575f80fd5b80630ee9a4791461022c578063254bd3261461024d5780632a84797f146102895780633054004c146102a8575b5f80fd5b348015610237575f80fd5b5061024b610246366004611b80565b6106f2565b005b348015610258575f80fd5b5061026c610267366004611b80565b610752565b6040516001600160a01b0390911681526020015b60405180910390f35b348015610294575f80fd5b5060015461026c906001600160a01b031681565b3480156102b3575f80fd5b5061024b6102c2366004611b80565b6107c5565b3480156102d2575f80fd5b506102dc600b5481565b604051908152602001610280565b3480156102f5575f80fd5b5061024b610304366004611b80565b61080d565b348015610314575f80fd5b50610337610323366004611bb2565b60106020525f908152604090205460ff1681565b6040519015158152602001610280565b348015610352575f80fd5b5061024b610361366004611be0565b61081a565b348015610371575f80fd5b5061024b610a87565b348015610385575f80fd5b5061024b610394366004611c1a565b610a9a565b3480156103a4575f80fd5b5061024b6103b3366004611b80565b610d85565b3480156103c3575f80fd5b506102dc60055481565b3480156103d8575f80fd5b506102dc60095481565b3480156103ed575f80fd5b505f546001600160a01b031661026c565b348015610409575f80fd5b5061041d610418366004611c43565b610e23565b604080516001600160a01b03909b168b5260208b0199909952978901969096526060880194909452608087019290925260a086015260c085015260e0840152610100830152151561012082015261014001610280565b34801561047e575f80fd5b506102dc610e9c565b348015610492575f80fd5b5061024b6104a1366004611b80565b610ecf565b3480156104b1575f80fd5b5061026c610f1b565b3480156104c5575f80fd5b506102dc610f74565b3480156104d9575f80fd5b5061026c610fa5565b3480156104ed575f80fd5b5061024b6104fc366004611b80565b610ffe565b34801561050c575f80fd5b506102dc60075481565b348015610521575f80fd5b506102dc610530366004611bb2565b60126020525f908152604090205481565b34801561054c575f80fd5b506102dc600a5481565b348015610561575f80fd5b506102dc60045481565b348015610576575f80fd5b506102dc60065481565b34801561058b575f80fd5b5060035461026c906001600160a01b031681565b3480156105aa575f80fd5b506102dc60085481565b3480156105bf575f80fd5b5061024b6105ce366004611c6b565b61103d565b3480156105de575f80fd5b5061024b6105ed366004611bb2565b611483565b3480156105fd575f80fd5b5061026c611552565b348015610611575f80fd5b5060025461026c906001600160a01b031681565b348015610630575f80fd5b5061024b61063f366004611bb2565b6115ab565b34801561064f575f80fd5b5061024b61065e366004611b80565b611635565b34801561066e575f80fd5b50600d5461026c906001600160a01b031681565b34801561068d575f80fd5b506102dc61069c366004611b80565b611642565b3480156106ac575f80fd5b5061024b6106bb366004611c8b565b611674565b3480156106cb575f80fd5b5061024b6106da366004611bb2565b611724565b61024b6106ed366004611c6b565b611761565b6106fa611af8565b5f61070482610752565b6001600160a01b0381165f9081526010602052604090205490915060ff1661072f5761072f82610d85565b600d80546001600160a01b0319166001600160a01b039290921691909117905550565b5f8061075d83611642565b90505f610768610f74565b6040516001600160f81b031960208201526bffffffffffffffffffffffff193060601b166021820152603581018490526055810182905290915060750160408051601f198184030181529190528051602090910120949350505050565b6107cd611af8565b60648111156107f75760405162461bcd60e51b81526004016107ee90611cbc565b60405180910390fd5b600b819055610807816064611d26565b600a5550565b610815611af8565b600955565b600f546001600160a01b0316336001600160a01b0316148061084f5750600e546001600160a01b0316336001600160a01b0316145b8061086357505f546001600160a01b031633145b61087f5760405162461bcd60e51b81526004016107ee90611d3f565b5f8084600281111561089357610893611d6b565b036108aa57506001546001600160a01b03166108fc565b60028460028111156108be576108be611d6b565b036108d557506003546001600160a01b03166108fc565b60018460028111156108e9576108e9611d6b565b036108fc57506002546001600160a01b03165b600d546040516370a0823160e01b81526001600160a01b03918216600482015283918316906370a0823190602401602060405180830381865afa158015610945573d5f803e3d5ffd5b505050506040513d601f19601f820116820180604052508101906109699190611d7f565b10156109d15760405162461bcd60e51b815260206004820152603160248201527f57697468647261773a20496e73756666696369656e742062616c616e636520696044820152701b881d1a1948189bdd1d1bdb481c1bdbdb607a1b60648201526084016107ee565b600d54604051637aa9bf6f60e11b81526001600160a01b039091169063f5537ede90610a0590849087908790600401611d96565b6020604051808303815f875af1158015610a21573d5f803e3d5ffd5b505050506040513d601f19601f82011682018060405250810190610a459190611d7f565b507f9b1bfa7fa9ee420a16e124f794c35ac9f90472acc99140eb2f6447c714cad8eb818484604051610a7993929190611d96565b60405180910390a150505050565b610a8f611af8565b610a985f611b24565b565b600f546001600160a01b0316336001600160a01b03161480610acf5750600e546001600160a01b0316336001600160a01b0316145b80610ae357505f546001600160a01b031633145b610aff5760405162461bcd60e51b81526004016107ee90611d3f565b5f610b0984610752565b6001546040516370a0823160e01b81526001600160a01b0380841660048301529293508592909116906370a0823190602401602060405180830381865afa158015610b56573d5f803e3d5ffd5b505050506040513d601f19601f82011682018060405250810190610b7a9190611d7f565b1015610b985760405162461bcd60e51b81526004016107ee90611dba565b6001546040516370a0823160e01b81526001600160a01b038381166004830152849216906370a0823190602401602060405180830381865afa158015610be0573d5f803e3d5ffd5b505050506040513d601f19601f82011682018060405250810190610c049190611d7f565b1015610c225760405162461bcd60e51b81526004016107ee90611dba565b6001546040516323b872dd60e01b81526001600160a01b03909116906323b872dd90610c569084905f908890600401611d96565b6020604051808303815f875af1158015610c72573d5f803e3d5ffd5b505050506040513d601f19601f82011682018060405250810190610c969190611e10565b508260055f828254610ca89190611d26565b90915550506002546040516323b872dd60e01b81526001600160a01b03909116906323b872dd90610ce19084905f908790600401611d96565b6020604051808303815f875af1158015610cfd573d5f803e3d5ffd5b505050506040513d601f19601f82011682018060405250810190610d219190611e10565b508160065f828254610d339190611d26565b9091555050604080518581526001600160a01b0383166020820152908101849052606081018390527f12301bd8b56149a2d9acf3a39ffa806cdcb3da352fd558593637a9ccf3e98bf290608001610a79565b610d8d611af8565b5f610d9782611642565b90505f81604051610da790611b73565b8190604051809103905ff5905080158015610dc4573d5f803e3d5ffd5b506001600160a01b0381165f81815260106020908152604091829020805460ff1916600117905590519182529192507fe3758539c1bd6726422843471b2886c2d2cefd3b4aead6778386283e20a32a80910160405180910390a1505050565b6011602052815f5260405f208181548110610e3c575f80fd5b5f9182526020909120600a909102018054600182015460028301546003840154600485015460058601546006870154600788015460088901546009909901546001600160a01b039098169a50959850939692959194909392909160ff168a565b5f6005545f148015610eae5750600654155b15610eba575060075490565b600554600654610eca9190611e2f565b905090565b600e546001600160a01b0316336001600160a01b03161480610efa57505f546001600160a01b031633145b610f165760405162461bcd60e51b81526004016107ee90611e4e565b600755565b600e545f906001600160a01b0316336001600160a01b03161480610f4857505f546001600160a01b031633145b610f645760405162461bcd60e51b81526004016107ee90611e4e565b50600c546001600160a01b031690565b5f60405180602001610f8590611b73565b6020820181038252601f19601f8201166040525080519060200120905090565b600e545f906001600160a01b0316336001600160a01b03161480610fd257505f546001600160a01b031633145b610fee5760405162461bcd60e51b81526004016107ee90611e4e565b50600f546001600160a01b031690565b611006611af8565b60648111156110275760405162461bcd60e51b81526004016107ee90611cbc565b600a819055611037816064611d26565b600b5550565b600f546001600160a01b0316336001600160a01b031614806110725750600e546001600160a01b0316336001600160a01b0316145b8061108657505f546001600160a01b031633145b6110a25760405162461bcd60e51b81526004016107ee90611d3f565b5f6110ab610e9c565b90505f6110b88284611e2f565b90505f60085460646110ca9190611d26565b6110d5606484611e2f565b6110df9190611e7c565b90505f6110eb86610752565b6001600160a01b0381165f9081526010602052604090205490915060ff166111165761111686610d85565b6002546040516340c10f1960e01b81526001600160a01b03838116600483015260248201889052909116906340c10f19906044015f604051808303815f87803b158015611161575f80fd5b505af1158015611173573d5f803e3d5ffd5b50506001546040516340c10f1960e01b81526001600160a01b0385811660048301526024820187905290911692506340c10f1991506044015f604051808303815f87803b1580156111c2575f80fd5b505af11580156111d4573d5f803e3d5ffd5b505050508460065f8282546111e99190611e93565b925050819055508160055f8282546112019190611e93565b90915550506001600160a01b0381165f90815260126020526040812080549161122983611ea6565b90915550506001600160a01b0381165f9081526011602052604090819020815161014081019092529080336001600160a01b03908116825260208083018b905260408084018b905260608085018b905260808086018a90525f60a080880182905260c08089018390524260e0808b01829052610100808c01929092526101209a8b018590528c5460018082018f559d8652948990208c51600a9096020180546001600160a01b031916958b16959095178555978b01519b84019b909b5589860151600280850191909155948a015160038401559289015160048084019190915590890151600583015591880151600682015593870151600785015596860151600884015594909301516009909101805460ff1916911515919091179055915490516370a0823160e01b8152848316938101939093527f4db61f87cbf388b10495cd59446c126be1ae5ca422fb07c4b611b967541c321a9284928a928a92889291909116906370a0823190602401602060405180830381865afa1580156113b1573d5f803e3d5ffd5b505050506040513d601f19601f820116820180604052508101906113d59190611d7f565b6001546040516370a0823160e01b81526001600160a01b038981166004830152909116906370a0823190602401602060405180830381865afa15801561141d573d5f803e3d5ffd5b505050506040513d601f19601f820116820180604052508101906114419190611d7f565b604080516001600160a01b0390971687526020870195909552938501929092526060840152608083015260a082015260c00160405180910390a1505050505050565b600e546001600160a01b0316336001600160a01b031614806114ae57505f546001600160a01b031633145b6114ca5760405162461bcd60e51b81526004016107ee90611e4e565b6001600160a01b0381166115305760405162461bcd60e51b815260206004820152602760248201527f53657474696e67204d616e616765723a204e6f7420616c6c6f77207a65726f206044820152666164647265737360c81b60648201526084016107ee565b600e80546001600160a01b0319166001600160a01b0392909216919091179055565b600e545f906001600160a01b0316336001600160a01b0316148061157f57505f546001600160a01b031633145b61159b5760405162461bcd60e51b81526004016107ee90611e4e565b50600e546001600160a01b031690565b6115b3611af8565b6001600160a01b0381166116135760405162461bcd60e51b815260206004820152602160248201527f466f756e646174696f6e3a20616464726573732063616e2774206265207a65726044820152606f60f81b60648201526084016107ee565b600c80546001600160a01b0319166001600160a01b0392909216919091179055565b61163d611af8565b600855565b604080514660208201529081018290525f90606001604051602081830303815290604052805190602001209050919050565b61167c611af8565b5f82600281111561168f5761168f611d6b565b036116b357600180546001600160a01b0319166001600160a01b0383161790555050565b60018260028111156116c7576116c7611d6b565b036116eb57600280546001600160a01b0319166001600160a01b0383161790555050565b60028260028111156116ff576116ff611d6b565b0361172057600380546001600160a01b0319166001600160a01b0383161790555b5050565b61172c611af8565b6001600160a01b03811661175557604051631e4fbdf760e01b81525f60048201526024016107ee565b61175e81611b24565b50565b60035481906001600160a01b03166370a08231336040516001600160e01b031960e084901b1681526001600160a01b039091166004820152602401602060405180830381865afa1580156117b7573d5f803e3d5ffd5b505050506040513d601f19601f820116820180604052508101906117db9190611d7f565b10156118295760405162461bcd60e51b815260206004820152601c60248201527f506c656467653a20496e73756666696369656e742062616c616e63650000000060448201526064016107ee565b5f611832610e9c565b90505f61183f8284611e2f565b90505f60085460646118519190611d26565b61185c606484611e2f565b6118669190611e7c565b90505f61187286610752565b6001600160a01b0381165f9081526010602052604090205490915060ff1661189d5761189d86610d85565b6002546040516340c10f1960e01b81526001600160a01b03838116600483015260248201889052909116906340c10f19906044015f604051808303815f87803b1580156118e8575f80fd5b505af11580156118fa573d5f803e3d5ffd5b50506001546040516340c10f1960e01b81526001600160a01b0385811660048301526024820187905290911692506340c10f1991506044015f604051808303815f87803b158015611949575f80fd5b505af115801561195b573d5f803e3d5ffd5b505050508460065f8282546119709190611e93565b925050819055508160055f8282546119889190611e93565b925050819055508460045f8282546119a09190611e93565b90915550506003546001600160a01b03166323b872dd33600c54600a546001600160a01b03909116906119d460648b611e2f565b6119de9190611e7c565b6040518463ffffffff1660e01b81526004016119fc93929190611d96565b6020604051808303815f875af1158015611a18573d5f803e3d5ffd5b505050506040513d601f19601f82011682018060405250810190611a3c9190611e10565b506003546001600160a01b03166323b872dd33600d54600b546001600160a01b0390911690611a6c60648b611e2f565b611a769190611e7c565b6040518463ffffffff1660e01b8152600401611a9493929190611d96565b6020604051808303815f875af1158015611ab0573d5f803e3d5ffd5b505050506040513d601f19601f82011682018060405250810190611ad49190611e10565b506001600160a01b0381165f90815260126020526040812080549161122983611ea6565b5f546001600160a01b03163314610a985760405163118cdaa760e01b81523360048201526024016107ee565b5f80546001600160a01b038381166001600160a01b0319831681178455604051919092169283917f8be0079c531659141344cd1fd0a4f28419497f9722a3daafe3b4186f6b6457e09190a35050565b61062f80611ebf83390190565b5f60208284031215611b90575f80fd5b5035919050565b80356001600160a01b0381168114611bad575f80fd5b919050565b5f60208284031215611bc2575f80fd5b611bcb82611b97565b9392505050565b803560038110611bad575f80fd5b5f805f60608486031215611bf2575f80fd5b611bfb84611bd2565b9250611c0960208501611b97565b929592945050506040919091013590565b5f805f60608486031215611c2c575f80fd5b505081359360208301359350604090920135919050565b5f8060408385031215611c54575f80fd5b611c5d83611b97565b946020939093013593505050565b5f8060408385031215611c7c575f80fd5b50508035926020909101359150565b5f8060408385031215611c9c575f80fd5b611ca583611bd2565b9150611cb360208401611b97565b90509250929050565b60208082526036908201527f53657474696e6720706f696e743a20506f696e74206d757374206265206c6573604082015275073207468616e206f7220657175616c20746f203130360541b606082015260800190565b634e487b7160e01b5f52601160045260245ffd5b81810381811115611d3957611d39611d12565b92915050565b60208082526012908201527153797374656d3a204e6f742073797374656d60701b604082015260600190565b634e487b7160e01b5f52602160045260245ffd5b5f60208284031215611d8f575f80fd5b5051919050565b6001600160a01b039384168152919092166020820152604081019190915260600190565b60208082526036908201527f446573746f72793a20496e73756666696369656e74206163636f756e742062616040820152751b185b98d94818d85b8818994819195cdd1c9bde595960521b606082015260800190565b5f60208284031215611e20575f80fd5b81518015158114611bcb575f80fd5b5f82611e4957634e487b7160e01b5f52601260045260245ffd5b500490565b60208082526014908201527326b0b730b3b2b91d102737ba1026b0b730b3b2b960611b604082015260600190565b8082028115828204841417611d3957611d39611d12565b80820180821115611d3957611d39611d12565b5f60018201611eb757611eb7611d12565b506001019056fe6080604052348015600e575f80fd5b505f80546001600160a01b031916331790556106028061002d5f395ff3fe60806040526004361061004c575f3560e01c80633aeac4e114610057578063690d832014610089578063b2bdfa7b146100a8578063eb17fba3146100de578063f5537ede146100fd575f80fd5b3661005357005b5f80fd5b348015610062575f80fd5b5061007661007136600461049f565b61011c565b6040519081526020015b60405180910390f35b348015610094575f80fd5b506100766100a33660046104d0565b6101d6565b3480156100b3575f80fd5b505f546100c6906001600160a01b031681565b6040516001600160a01b039091168152602001610080565b3480156100e9575f80fd5b506100766100f83660046104e9565b61024b565b348015610108575f80fd5b50610076610117366004610511565b6102c0565b5f80546001600160a01b0316331461014f5760405162461bcd60e51b81526004016101469061054b565b60405180910390fd5b6040516370a0823160e01b81523060048201526001600160a01b038416906370a0823190602401602060405180830381865afa158015610191573d5f803e3d5ffd5b505050506040513d601f19601f820116820180604052508101906101b59190610580565b9050805f036101c557505f6101d0565b6101d0838383610373565b92915050565b5f80546001600160a01b031633146102005760405162461bcd60e51b81526004016101469061054b565b479050805f0361021157505f919050565b6040516001600160a01b0383169082156108fc029083905f818181858888f19350505050158015610244573d5f803e3d5ffd5b505b919050565b5f80546001600160a01b031633146102755760405162461bcd60e51b81526004016101469061054b565b50478181101561028657505f6101d0565b6040516001600160a01b0384169083156108fc029084905f818181858888f193505050501580156102b9573d5f803e3d5ffd5b5092915050565b5f80546001600160a01b031633146102ea5760405162461bcd60e51b81526004016101469061054b565b6040516370a0823160e01b81523060048201526001600160a01b038516906370a0823190602401602060405180830381865afa15801561032c573d5f803e3d5ffd5b505050506040513d601f19601f820116820180604052508101906103509190610580565b90508181101561036157505f61036c565b61036c848484610373565b9392505050565b604080516001600160a01b038481166024830152604480830185905283518084039091018152606490920183526020820180516001600160e01b031663a9059cbb60e01b17905291515f928392908716916103ce9190610597565b5f604051808303815f865af19150503d805f8114610407576040519150601f19603f3d011682016040523d82523d5f602084013e61040c565b606091505b509150915081801561043657508051158061043657508080602001905181019061043691906105ad565b6104825760405162461bcd60e51b815260206004820152601f60248201527f5472616e7366657248656c7065723a205452414e534645525f4641494c4544006044820152606401610146565b5050505050565b80356001600160a01b0381168114610246575f80fd5b5f80604083850312156104b0575f80fd5b6104b983610489565b91506104c760208401610489565b90509250929050565b5f602082840312156104e0575f80fd5b61036c82610489565b5f80604083850312156104fa575f80fd5b61050383610489565b946020939093013593505050565b5f805f60608486031215610523575f80fd5b61052c84610489565b925061053a60208501610489565b929592945050506040919091013590565b6020808252818101527f4f776e61626c653a2063616c6c6572206973206e6f7420746865206f776e6572604082015260600190565b5f60208284031215610590575f80fd5b5051919050565b5f82518060208501845e5f920191825250919050565b5f602082840312156105bd575f80fd5b8151801515811461036c575f80fdfea2646970667358221220f2de7afa9a93a3e7ade2341628388c1a941e1243e1d1759c42c57a5cde3c035f64736f6c634300081a0033a2646970667358221220ad1c7f707f3c8cf40446e4cb79076623a6317600cb97eb4c6f7590a5068d87f864736f6c634300081a00336080604052348015600e575f80fd5b505f80546001600160a01b031916331790556106028061002d5f395ff3fe60806040526004361061004c575f3560e01c80633aeac4e114610057578063690d832014610089578063b2bdfa7b146100a8578063eb17fba3146100de578063f5537ede146100fd575f80fd5b3661005357005b5f80fd5b348015610062575f80fd5b5061007661007136600461049f565b61011c565b6040519081526020015b60405180910390f35b348015610094575f80fd5b506100766100a33660046104d0565b6101d6565b3480156100b3575f80fd5b505f546100c6906001600160a01b031681565b6040516001600160a01b039091168152602001610080565b3480156100e9575f80fd5b506100766100f83660046104e9565b61024b565b348015610108575f80fd5b50610076610117366004610511565b6102c0565b5f80546001600160a01b0316331461014f5760405162461bcd60e51b81526004016101469061054b565b60405180910390fd5b6040516370a0823160e01b81523060048201526001600160a01b038416906370a0823190602401602060405180830381865afa158015610191573d5f803e3d5ffd5b505050506040513d601f19601f820116820180604052508101906101b59190610580565b9050805f036101c557505f6101d0565b6101d0838383610373565b92915050565b5f80546001600160a01b031633146102005760405162461bcd60e51b81526004016101469061054b565b479050805f0361021157505f919050565b6040516001600160a01b0383169082156108fc029083905f818181858888f19350505050158015610244573d5f803e3d5ffd5b505b919050565b5f80546001600160a01b031633146102755760405162461bcd60e51b81526004016101469061054b565b50478181101561028657505f6101d0565b6040516001600160a01b0384169083156108fc029084905f818181858888f193505050501580156102b9573d5f803e3d5ffd5b5092915050565b5f80546001600160a01b031633146102ea5760405162461bcd60e51b81526004016101469061054b565b6040516370a0823160e01b81523060048201526001600160a01b038516906370a0823190602401602060405180830381865afa15801561032c573d5f803e3d5ffd5b505050506040513d601f19601f820116820180604052508101906103509190610580565b90508181101561036157505f61036c565b61036c848484610373565b9392505050565b604080516001600160a01b038481166024830152604480830185905283518084039091018152606490920183526020820180516001600160e01b031663a9059cbb60e01b17905291515f928392908716916103ce9190610597565b5f604051808303815f865af19150503d805f8114610407576040519150601f19603f3d011682016040523d82523d5f602084013e61040c565b606091505b509150915081801561043657508051158061043657508080602001905181019061043691906105ad565b6104825760405162461bcd60e51b815260206004820152601f60248201527f5472616e7366657248656c7065723a205452414e534645525f4641494c4544006044820152606401610146565b5050505050565b80356001600160a01b0381168114610246575f80fd5b5f80604083850312156104b0575f80fd5b6104b983610489565b91506104c760208401610489565b90509250929050565b5f602082840312156104e0575f80fd5b61036c82610489565b5f80604083850312156104fa575f80fd5b61050383610489565b946020939093013593505050565b5f805f60608486031215610523575f80fd5b61052c84610489565b925061053a60208501610489565b929592945050506040919091013590565b6020808252818101527f4f776e61626c653a2063616c6c6572206973206e6f7420746865206f776e6572604082015260600190565b5f60208284031215610590575f80fd5b5051919050565b5f82518060208501845e5f920191825250919050565b5f602082840312156105bd575f80fd5b8151801515811461036c575f80fdfea2646970667358221220f2de7afa9a93a3e7ade2341628388c1a941e1243e1d1759c42c57a5cde3c035f64736f6c634300081a0033",
			"opcodes": "PUSH1 0x80 PUSH1 0x40 MSTORE PUSH0 PUSH1 0x4 SSTORE PUSH0 PUSH1 0x5 SSTORE PUSH0 PUSH1 0x6 SSTORE PUSH1 0xA PUSH1 0x8 SSTORE PUSH1 0x14 PUSH1 0x9 SSTORE PUSH1 0x32 PUSH1 0xA SSTORE PUSH1 0x32 PUSH1 0xB SSTORE CALLVALUE DUP1 ISZERO PUSH2 0x2F JUMPI PUSH0 DUP1 REVERT JUMPDEST POP PUSH1 0x40 MLOAD PUSH2 0x2F9B CODESIZE SUB DUP1 PUSH2 0x2F9B DUP4 CODECOPY DUP2 ADD PUSH1 0x40 DUP2 SWAP1 MSTORE PUSH2 0x4E SWAP2 PUSH2 0x3FC JUMP JUMPDEST CALLER DUP1 PUSH2 0x74 JUMPI PUSH1 0x40 MLOAD PUSH4 0x1E4FBDF7 PUSH1 0xE0 SHL DUP2 MSTORE PUSH0 PUSH1 0x4 DUP3 ADD MSTORE PUSH1 0x24 ADD JUMPDEST PUSH1 0x40 MLOAD DUP1 SWAP2 SUB SWAP1 REVERT JUMPDEST PUSH2 0x7D DUP2 PUSH2 0x1C5 JUMP JUMPDEST POP PUSH1 0x1 DUP1 SLOAD PUSH1 0x1 PUSH1 0x1 PUSH1 0xA0 SHL SUB NOT SWAP1 DUP2 AND SWAP1 SWAP2 SSTORE PUSH1 0x2 DUP1 SLOAD DUP3 AND SWAP1 SSTORE PUSH1 0x3 DUP1 SLOAD SWAP1 SWAP2 AND SWAP1 SSTORE PUSH1 0xA PUSH1 0x8 DUP2 SWAP1 SSTORE PUSH1 0x14 PUSH1 0x9 SSTORE PUSH1 0x32 SWAP1 DUP2 SWAP1 SSTORE PUSH1 0xB SSTORE PUSH8 0xDE0B6B3A7640000 PUSH1 0x7 SSTORE PUSH1 0x40 MLOAD PUSH4 0x2D199875 PUSH1 0xE0 SHL DUP2 MSTORE ADDRESS PUSH1 0x4 DUP3 ADD MSTORE PUSH0 SWAP1 PUSH4 0x2D199875 SWAP1 PUSH1 0x24 ADD PUSH0 PUSH1 0x40 MLOAD DUP1 DUP4 SUB DUP2 PUSH0 DUP8 DUP1 EXTCODESIZE ISZERO DUP1 ISZERO PUSH2 0xF8 JUMPI PUSH0 DUP1 REVERT JUMPDEST POP GAS CALL ISZERO DUP1 ISZERO PUSH2 0x10A JUMPI RETURNDATASIZE PUSH0 DUP1 RETURNDATACOPY RETURNDATASIZE PUSH0 REVERT JUMPDEST POP POP PUSH1 0x2 SLOAD PUSH1 0x40 MLOAD PUSH4 0x2D199875 PUSH1 0xE0 SHL DUP2 MSTORE ADDRESS PUSH1 0x4 DUP3 ADD MSTORE PUSH1 0x1 PUSH1 0x1 PUSH1 0xA0 SHL SUB SWAP1 SWAP2 AND SWAP3 POP PUSH4 0x2D199875 SWAP2 POP PUSH1 0x24 ADD PUSH0 PUSH1 0x40 MLOAD DUP1 DUP4 SUB DUP2 PUSH0 DUP8 DUP1 EXTCODESIZE ISZERO DUP1 ISZERO PUSH2 0x150 JUMPI PUSH0 DUP1 REVERT JUMPDEST POP GAS CALL ISZERO DUP1 ISZERO PUSH2 0x162 JUMPI RETURNDATASIZE PUSH0 DUP1 RETURNDATACOPY RETURNDATASIZE PUSH0 REVERT JUMPDEST POP POP POP POP PUSH2 0x178 PUSH3 0xF423F PUSH2 0x214 PUSH1 0x20 SHL PUSH1 0x20 SHR JUMP JUMPDEST PUSH1 0xC DUP1 SLOAD PUSH1 0x1 PUSH1 0x1 PUSH1 0xA0 SHL SUB NOT AND SWAP1 SSTORE PUSH2 0x194 PUSH3 0xF423F PUSH2 0x2D0 JUMP JUMPDEST PUSH1 0xD DUP1 SLOAD PUSH1 0x1 PUSH1 0x1 PUSH1 0xA0 SHL SUB SWAP3 SWAP1 SWAP3 AND PUSH1 0x1 PUSH1 0x1 PUSH1 0xA0 SHL SUB NOT SWAP3 DUP4 AND OR SWAP1 SSTORE PUSH1 0xE DUP1 SLOAD SWAP1 SWAP2 AND SWAP1 SSTORE POP PUSH2 0x43C SWAP2 POP POP JUMP JUMPDEST PUSH0 DUP1 SLOAD PUSH1 0x1 PUSH1 0x1 PUSH1 0xA0 SHL SUB DUP4 DUP2 AND PUSH1 0x1 PUSH1 0x1 PUSH1 0xA0 SHL SUB NOT DUP4 AND DUP2 OR DUP5 SSTORE PUSH1 0x40 MLOAD SWAP2 SWAP1 SWAP3 AND SWAP3 DUP4 SWAP2 PUSH32 0x8BE0079C531659141344CD1FD0A4F28419497F9722A3DAAFE3B4186F6B6457E0 SWAP2 SWAP1 LOG3 POP POP JUMP JUMPDEST PUSH2 0x21C PUSH2 0x375 JUMP JUMPDEST PUSH1 0x40 DUP1 MLOAD CHAINID PUSH1 0x20 DUP1 DUP4 ADD SWAP2 SWAP1 SWAP2 MSTORE DUP2 DUP4 ADD DUP5 SWAP1 MSTORE DUP3 MLOAD DUP1 DUP4 SUB DUP5 ADD DUP2 MSTORE PUSH1 0x60 SWAP1 SWAP3 ADD SWAP1 SWAP3 MSTORE DUP1 MLOAD SWAP2 ADD KECCAK256 PUSH0 DUP2 PUSH1 0x40 MLOAD PUSH2 0x254 SWAP1 PUSH2 0x3D4 JUMP JUMPDEST DUP2 SWAP1 PUSH1 0x40 MLOAD DUP1 SWAP2 SUB SWAP1 PUSH0 CREATE2 SWAP1 POP DUP1 ISZERO DUP1 ISZERO PUSH2 0x271 JUMPI RETURNDATASIZE PUSH0 DUP1 RETURNDATACOPY RETURNDATASIZE PUSH0 REVERT JUMPDEST POP PUSH1 0x1 PUSH1 0x1 PUSH1 0xA0 SHL SUB DUP2 AND PUSH0 DUP2 DUP2 MSTORE PUSH1 0x10 PUSH1 0x20 SWAP1 DUP2 MSTORE PUSH1 0x40 SWAP2 DUP3 SWAP1 KECCAK256 DUP1 SLOAD PUSH1 0xFF NOT AND PUSH1 0x1 OR SWAP1 SSTORE SWAP1 MLOAD SWAP2 DUP3 MSTORE SWAP2 SWAP3 POP PUSH32 0xE3758539C1BD6726422843471B2886C2D2CEFD3B4AEAD6778386283E20A32A80 SWAP2 ADD PUSH1 0x40 MLOAD DUP1 SWAP2 SUB SWAP1 LOG1 POP POP POP JUMP JUMPDEST PUSH1 0x40 DUP1 MLOAD CHAINID PUSH1 0x20 DUP1 DUP4 ADD SWAP2 SWAP1 SWAP2 MSTORE DUP2 DUP4 ADD DUP5 SWAP1 MSTORE DUP3 MLOAD DUP1 DUP4 SUB DUP5 ADD DUP2 MSTORE PUSH1 0x60 SWAP1 SWAP3 ADD SWAP1 SWAP3 MSTORE DUP1 MLOAD SWAP2 ADD KECCAK256 PUSH0 SWAP1 PUSH0 PUSH2 0x305 PUSH2 0x3A3 JUMP JUMPDEST PUSH1 0x40 MLOAD PUSH32 0xFF00000000000000000000000000000000000000000000000000000000000000 PUSH1 0x20 DUP3 ADD MSTORE PUSH1 0x1 PUSH1 0x1 PUSH1 0x60 SHL SUB NOT ADDRESS PUSH1 0x60 SHL AND PUSH1 0x21 DUP3 ADD MSTORE PUSH1 0x35 DUP2 ADD DUP5 SWAP1 MSTORE PUSH1 0x55 DUP2 ADD DUP3 SWAP1 MSTORE SWAP1 SWAP2 POP PUSH1 0x75 ADD PUSH1 0x40 DUP1 MLOAD PUSH1 0x1F NOT DUP2 DUP5 SUB ADD DUP2 MSTORE SWAP2 SWAP1 MSTORE DUP1 MLOAD PUSH1 0x20 SWAP1 SWAP2 ADD KECCAK256 SWAP5 SWAP4 POP POP POP POP JUMP JUMPDEST PUSH0 SLOAD PUSH1 0x1 PUSH1 0x1 PUSH1 0xA0 SHL SUB AND CALLER EQ PUSH2 0x3A1 JUMPI PUSH1 0x40 MLOAD PUSH4 0x118CDAA7 PUSH1 0xE0 SHL DUP2 MSTORE CALLER PUSH1 0x4 DUP3 ADD MSTORE PUSH1 0x24 ADD PUSH2 0x6B JUMP JUMPDEST JUMP JUMPDEST PUSH0 PUSH1 0x40 MLOAD DUP1 PUSH1 0x20 ADD PUSH2 0x3B4 SWAP1 PUSH2 0x3D4 JUMP JUMPDEST PUSH1 0x20 DUP3 ADD DUP2 SUB DUP3 MSTORE PUSH1 0x1F NOT PUSH1 0x1F DUP3 ADD AND PUSH1 0x40 MSTORE POP DUP1 MLOAD SWAP1 PUSH1 0x20 ADD KECCAK256 SWAP1 POP SWAP1 JUMP JUMPDEST PUSH2 0x62F DUP1 PUSH2 0x296C DUP4 CODECOPY ADD SWAP1 JUMP JUMPDEST DUP1 MLOAD PUSH1 0x1 PUSH1 0x1 PUSH1 0xA0 SHL SUB DUP2 AND DUP2 EQ PUSH2 0x3F7 JUMPI PUSH0 DUP1 REVERT JUMPDEST SWAP2 SWAP1 POP JUMP JUMPDEST PUSH0 DUP1 PUSH0 PUSH1 0x60 DUP5 DUP7 SUB SLT ISZERO PUSH2 0x40E JUMPI PUSH0 DUP1 REVERT JUMPDEST PUSH2 0x417 DUP5 PUSH2 0x3E1 JUMP JUMPDEST SWAP3 POP PUSH2 0x425 PUSH1 0x20 DUP6 ADD PUSH2 0x3E1 JUMP JUMPDEST SWAP2 POP PUSH2 0x433 PUSH1 0x40 DUP6 ADD PUSH2 0x3E1 JUMP JUMPDEST SWAP1 POP SWAP3 POP SWAP3 POP SWAP3 JUMP JUMPDEST PUSH2 0x2523 DUP1 PUSH2 0x449 PUSH0 CODECOPY PUSH0 RETURN INVALID PUSH1 0x80 PUSH1 0x40 MSTORE PUSH1 0x4 CALLDATASIZE LT PUSH2 0x228 JUMPI PUSH0 CALLDATALOAD PUSH1 0xE0 SHR DUP1 PUSH4 0xAD0CA906 GT PUSH2 0x129 JUMPI DUP1 PUSH4 0xD0EBDBE7 GT PUSH2 0xA8 JUMPI DUP1 PUSH4 0xDE909560 GT PUSH2 0x6D JUMPI DUP1 PUSH4 0xDE909560 EQ PUSH2 0x663 JUMPI DUP1 PUSH4 0xE0E59C4F EQ PUSH2 0x682 JUMPI DUP1 PUSH4 0xE4105ED5 EQ PUSH2 0x6A1 JUMPI DUP1 PUSH4 0xF2FDE38B EQ PUSH2 0x6C0 JUMPI DUP1 PUSH4 0xFDE327BE EQ PUSH2 0x6DF JUMPI PUSH0 DUP1 REVERT JUMPDEST DUP1 PUSH4 0xD0EBDBE7 EQ PUSH2 0x5D3 JUMPI DUP1 PUSH4 0xD5009584 EQ PUSH2 0x5F2 JUMPI DUP1 PUSH4 0xD71051F0 EQ PUSH2 0x606 JUMPI DUP1 PUSH4 0xDB3543F5 EQ PUSH2 0x625 JUMPI DUP1 PUSH4 0xDBE2193F EQ PUSH2 0x644 JUMPI PUSH0 DUP1 REVERT JUMPDEST DUP1 PUSH4 0xC21A43E4 GT PUSH2 0xEE JUMPI DUP1 PUSH4 0xC21A43E4 EQ PUSH2 0x556 JUMPI DUP1 PUSH4 0xC40CB854 EQ PUSH2 0x56B JUMPI DUP1 PUSH4 0xC54E44EB EQ PUSH2 0x580 JUMPI DUP1 PUSH4 0xCA0DCF16 EQ PUSH2 0x59F JUMPI DUP1 PUSH4 0xCC0111B9 EQ PUSH2 0x5B4 JUMPI PUSH0 DUP1 REVERT JUMPDEST DUP1 PUSH4 0xAD0CA906 EQ PUSH2 0x4CE JUMPI DUP1 PUSH4 0xB583E370 EQ PUSH2 0x4E2 JUMPI DUP1 PUSH4 0xB6ADD0F4 EQ PUSH2 0x501 JUMPI DUP1 PUSH4 0xB6B4F845 EQ PUSH2 0x516 JUMPI DUP1 PUSH4 0xB8823CEC EQ PUSH2 0x541 JUMPI PUSH0 DUP1 REVERT JUMPDEST DUP1 PUSH4 0x75A81DD3 GT PUSH2 0x1B5 JUMPI DUP1 PUSH4 0x8E369531 GT PUSH2 0x17A JUMPI DUP1 PUSH4 0x8E369531 EQ PUSH2 0x3FE JUMPI DUP1 PUSH4 0x98D5FDCA EQ PUSH2 0x473 JUMPI DUP1 PUSH4 0x9BBE5E78 EQ PUSH2 0x487 JUMPI DUP1 PUSH4 0xA2BC6CDF EQ PUSH2 0x4A6 JUMPI DUP1 PUSH4 0xA81A72A4 EQ PUSH2 0x4BA JUMPI PUSH0 DUP1 REVERT JUMPDEST DUP1 PUSH4 0x75A81DD3 EQ PUSH2 0x37A JUMPI DUP1 PUSH4 0x780900DC EQ PUSH2 0x399 JUMPI DUP1 PUSH4 0x7B210B4D EQ PUSH2 0x3B8 JUMPI DUP1 PUSH4 0x898FDF94 EQ PUSH2 0x3CD JUMPI DUP1 PUSH4 0x8DA5CB5B EQ PUSH2 0x3E2 JUMPI PUSH0 DUP1 REVERT JUMPDEST DUP1 PUSH4 0x432ED419 GT PUSH2 0x1FB JUMPI DUP1 PUSH4 0x432ED419 EQ PUSH2 0x2C7 JUMPI DUP1 PUSH4 0x4FB320B2 EQ PUSH2 0x2EA JUMPI DUP1 PUSH4 0x5E5C06E2 EQ PUSH2 0x309 JUMPI DUP1 PUSH4 0x70563D6B EQ PUSH2 0x347 JUMPI DUP1 PUSH4 0x715018A6 EQ PUSH2 0x366 JUMPI PUSH0 DUP1 REVERT JUMPDEST DUP1 PUSH4 0xEE9A479 EQ PUSH2 0x22C JUMPI DUP1 PUSH4 0x254BD326 EQ PUSH2 0x24D JUMPI DUP1 PUSH4 0x2A84797F EQ PUSH2 0x289 JUMPI DUP1 PUSH4 0x3054004C EQ PUSH2 0x2A8 JUMPI JUMPDEST PUSH0 DUP1 REVERT JUMPDEST CALLVALUE DUP1 ISZERO PUSH2 0x237 JUMPI PUSH0 DUP1 REVERT JUMPDEST POP PUSH2 0x24B PUSH2 0x246 CALLDATASIZE PUSH1 0x4 PUSH2 0x1B80 JUMP JUMPDEST PUSH2 0x6F2 JUMP JUMPDEST STOP JUMPDEST CALLVALUE DUP1 ISZERO PUSH2 0x258 JUMPI PUSH0 DUP1 REVERT JUMPDEST POP PUSH2 0x26C PUSH2 0x267 CALLDATASIZE PUSH1 0x4 PUSH2 0x1B80 JUMP JUMPDEST PUSH2 0x752 JUMP JUMPDEST PUSH1 0x40 MLOAD PUSH1 0x1 PUSH1 0x1 PUSH1 0xA0 SHL SUB SWAP1 SWAP2 AND DUP2 MSTORE PUSH1 0x20 ADD JUMPDEST PUSH1 0x40 MLOAD DUP1 SWAP2 SUB SWAP1 RETURN JUMPDEST CALLVALUE DUP1 ISZERO PUSH2 0x294 JUMPI PUSH0 DUP1 REVERT JUMPDEST POP PUSH1 0x1 SLOAD PUSH2 0x26C SWAP1 PUSH1 0x1 PUSH1 0x1 PUSH1 0xA0 SHL SUB AND DUP2 JUMP JUMPDEST CALLVALUE DUP1 ISZERO PUSH2 0x2B3 JUMPI PUSH0 DUP1 REVERT JUMPDEST POP PUSH2 0x24B PUSH2 0x2C2 CALLDATASIZE PUSH1 0x4 PUSH2 0x1B80 JUMP JUMPDEST PUSH2 0x7C5 JUMP JUMPDEST CALLVALUE DUP1 ISZERO PUSH2 0x2D2 JUMPI PUSH0 DUP1 REVERT JUMPDEST POP PUSH2 0x2DC PUSH1 0xB SLOAD DUP2 JUMP JUMPDEST PUSH1 0x40 MLOAD SWAP1 DUP2 MSTORE PUSH1 0x20 ADD PUSH2 0x280 JUMP JUMPDEST CALLVALUE DUP1 ISZERO PUSH2 0x2F5 JUMPI PUSH0 DUP1 REVERT JUMPDEST POP PUSH2 0x24B PUSH2 0x304 CALLDATASIZE PUSH1 0x4 PUSH2 0x1B80 JUMP JUMPDEST PUSH2 0x80D JUMP JUMPDEST CALLVALUE DUP1 ISZERO PUSH2 0x314 JUMPI PUSH0 DUP1 REVERT JUMPDEST POP PUSH2 0x337 PUSH2 0x323 CALLDATASIZE PUSH1 0x4 PUSH2 0x1BB2 JUMP JUMPDEST PUSH1 0x10 PUSH1 0x20 MSTORE PUSH0 SWAP1 DUP2 MSTORE PUSH1 0x40 SWAP1 KECCAK256 SLOAD PUSH1 0xFF AND DUP2 JUMP JUMPDEST PUSH1 0x40 MLOAD SWAP1 ISZERO ISZERO DUP2 MSTORE PUSH1 0x20 ADD PUSH2 0x280 JUMP JUMPDEST CALLVALUE DUP1 ISZERO PUSH2 0x352 JUMPI PUSH0 DUP1 REVERT JUMPDEST POP PUSH2 0x24B PUSH2 0x361 CALLDATASIZE PUSH1 0x4 PUSH2 0x1BE0 JUMP JUMPDEST PUSH2 0x81A JUMP JUMPDEST CALLVALUE DUP1 ISZERO PUSH2 0x371 JUMPI PUSH0 DUP1 REVERT JUMPDEST POP PUSH2 0x24B PUSH2 0xA87 JUMP JUMPDEST CALLVALUE DUP1 ISZERO PUSH2 0x385 JUMPI PUSH0 DUP1 REVERT JUMPDEST POP PUSH2 0x24B PUSH2 0x394 CALLDATASIZE PUSH1 0x4 PUSH2 0x1C1A JUMP JUMPDEST PUSH2 0xA9A JUMP JUMPDEST CALLVALUE DUP1 ISZERO PUSH2 0x3A4 JUMPI PUSH0 DUP1 REVERT JUMPDEST POP PUSH2 0x24B PUSH2 0x3B3 CALLDATASIZE PUSH1 0x4 PUSH2 0x1B80 JUMP JUMPDEST PUSH2 0xD85 JUMP JUMPDEST CALLVALUE DUP1 ISZERO PUSH2 0x3C3 JUMPI PUSH0 DUP1 REVERT JUMPDEST POP PUSH2 0x2DC PUSH1 0x5 SLOAD DUP2 JUMP JUMPDEST CALLVALUE DUP1 ISZERO PUSH2 0x3D8 JUMPI PUSH0 DUP1 REVERT JUMPDEST POP PUSH2 0x2DC PUSH1 0x9 SLOAD DUP2 JUMP JUMPDEST CALLVALUE DUP1 ISZERO PUSH2 0x3ED JUMPI PUSH0 DUP1 REVERT JUMPDEST POP PUSH0 SLOAD PUSH1 0x1 PUSH1 0x1 PUSH1 0xA0 SHL SUB AND PUSH2 0x26C JUMP JUMPDEST CALLVALUE DUP1 ISZERO PUSH2 0x409 JUMPI PUSH0 DUP1 REVERT JUMPDEST POP PUSH2 0x41D PUSH2 0x418 CALLDATASIZE PUSH1 0x4 PUSH2 0x1C43 JUMP JUMPDEST PUSH2 0xE23 JUMP JUMPDEST PUSH1 0x40 DUP1 MLOAD PUSH1 0x1 PUSH1 0x1 PUSH1 0xA0 SHL SUB SWAP1 SWAP12 AND DUP12 MSTORE PUSH1 0x20 DUP12 ADD SWAP10 SWAP1 SWAP10 MSTORE SWAP8 DUP10 ADD SWAP7 SWAP1 SWAP7 MSTORE PUSH1 0x60 DUP9 ADD SWAP5 SWAP1 SWAP5 MSTORE PUSH1 0x80 DUP8 ADD SWAP3 SWAP1 SWAP3 MSTORE PUSH1 0xA0 DUP7 ADD MSTORE PUSH1 0xC0 DUP6 ADD MSTORE PUSH1 0xE0 DUP5 ADD MSTORE PUSH2 0x100 DUP4 ADD MSTORE ISZERO ISZERO PUSH2 0x120 DUP3 ADD MSTORE PUSH2 0x140 ADD PUSH2 0x280 JUMP JUMPDEST CALLVALUE DUP1 ISZERO PUSH2 0x47E JUMPI PUSH0 DUP1 REVERT JUMPDEST POP PUSH2 0x2DC PUSH2 0xE9C JUMP JUMPDEST CALLVALUE DUP1 ISZERO PUSH2 0x492 JUMPI PUSH0 DUP1 REVERT JUMPDEST POP PUSH2 0x24B PUSH2 0x4A1 CALLDATASIZE PUSH1 0x4 PUSH2 0x1B80 JUMP JUMPDEST PUSH2 0xECF JUMP JUMPDEST CALLVALUE DUP1 ISZERO PUSH2 0x4B1 JUMPI PUSH0 DUP1 REVERT JUMPDEST POP PUSH2 0x26C PUSH2 0xF1B JUMP JUMPDEST CALLVALUE DUP1 ISZERO PUSH2 0x4C5 JUMPI PUSH0 DUP1 REVERT JUMPDEST POP PUSH2 0x2DC PUSH2 0xF74 JUMP JUMPDEST CALLVALUE DUP1 ISZERO PUSH2 0x4D9 JUMPI PUSH0 DUP1 REVERT JUMPDEST POP PUSH2 0x26C PUSH2 0xFA5 JUMP JUMPDEST CALLVALUE DUP1 ISZERO PUSH2 0x4ED JUMPI PUSH0 DUP1 REVERT JUMPDEST POP PUSH2 0x24B PUSH2 0x4FC CALLDATASIZE PUSH1 0x4 PUSH2 0x1B80 JUMP JUMPDEST PUSH2 0xFFE JUMP JUMPDEST CALLVALUE DUP1 ISZERO PUSH2 0x50C JUMPI PUSH0 DUP1 REVERT JUMPDEST POP PUSH2 0x2DC PUSH1 0x7 SLOAD DUP2 JUMP JUMPDEST CALLVALUE DUP1 ISZERO PUSH2 0x521 JUMPI PUSH0 DUP1 REVERT JUMPDEST POP PUSH2 0x2DC PUSH2 0x530 CALLDATASIZE PUSH1 0x4 PUSH2 0x1BB2 JUMP JUMPDEST PUSH1 0x12 PUSH1 0x20 MSTORE PUSH0 SWAP1 DUP2 MSTORE PUSH1 0x40 SWAP1 KECCAK256 SLOAD DUP2 JUMP JUMPDEST CALLVALUE DUP1 ISZERO PUSH2 0x54C JUMPI PUSH0 DUP1 REVERT JUMPDEST POP PUSH2 0x2DC PUSH1 0xA SLOAD DUP2 JUMP JUMPDEST CALLVALUE DUP1 ISZERO PUSH2 0x561 JUMPI PUSH0 DUP1 REVERT JUMPDEST POP PUSH2 0x2DC PUSH1 0x4 SLOAD DUP2 JUMP JUMPDEST CALLVALUE DUP1 ISZERO PUSH2 0x576 JUMPI PUSH0 DUP1 REVERT JUMPDEST POP PUSH2 0x2DC PUSH1 0x6 SLOAD DUP2 JUMP JUMPDEST CALLVALUE DUP1 ISZERO PUSH2 0x58B JUMPI PUSH0 DUP1 REVERT JUMPDEST POP PUSH1 0x3 SLOAD PUSH2 0x26C SWAP1 PUSH1 0x1 PUSH1 0x1 PUSH1 0xA0 SHL SUB AND DUP2 JUMP JUMPDEST CALLVALUE DUP1 ISZERO PUSH2 0x5AA JUMPI PUSH0 DUP1 REVERT JUMPDEST POP PUSH2 0x2DC PUSH1 0x8 SLOAD DUP2 JUMP JUMPDEST CALLVALUE DUP1 ISZERO PUSH2 0x5BF JUMPI PUSH0 DUP1 REVERT JUMPDEST POP PUSH2 0x24B PUSH2 0x5CE CALLDATASIZE PUSH1 0x4 PUSH2 0x1C6B JUMP JUMPDEST PUSH2 0x103D JUMP JUMPDEST CALLVALUE DUP1 ISZERO PUSH2 0x5DE JUMPI PUSH0 DUP1 REVERT JUMPDEST POP PUSH2 0x24B PUSH2 0x5ED CALLDATASIZE PUSH1 0x4 PUSH2 0x1BB2 JUMP JUMPDEST PUSH2 0x1483 JUMP JUMPDEST CALLVALUE DUP1 ISZERO PUSH2 0x5FD JUMPI PUSH0 DUP1 REVERT JUMPDEST POP PUSH2 0x26C PUSH2 0x1552 JUMP JUMPDEST CALLVALUE DUP1 ISZERO PUSH2 0x611 JUMPI PUSH0 DUP1 REVERT JUMPDEST POP PUSH1 0x2 SLOAD PUSH2 0x26C SWAP1 PUSH1 0x1 PUSH1 0x1 PUSH1 0xA0 SHL SUB AND DUP2 JUMP JUMPDEST CALLVALUE DUP1 ISZERO PUSH2 0x630 JUMPI PUSH0 DUP1 REVERT JUMPDEST POP PUSH2 0x24B PUSH2 0x63F CALLDATASIZE PUSH1 0x4 PUSH2 0x1BB2 JUMP JUMPDEST PUSH2 0x15AB JUMP JUMPDEST CALLVALUE DUP1 ISZERO PUSH2 0x64F JUMPI PUSH0 DUP1 REVERT JUMPDEST POP PUSH2 0x24B PUSH2 0x65E CALLDATASIZE PUSH1 0x4 PUSH2 0x1B80 JUMP JUMPDEST PUSH2 0x1635 JUMP JUMPDEST CALLVALUE DUP1 ISZERO PUSH2 0x66E JUMPI PUSH0 DUP1 REVERT JUMPDEST POP PUSH1 0xD SLOAD PUSH2 0x26C SWAP1 PUSH1 0x1 PUSH1 0x1 PUSH1 0xA0 SHL SUB AND DUP2 JUMP JUMPDEST CALLVALUE DUP1 ISZERO PUSH2 0x68D JUMPI PUSH0 DUP1 REVERT JUMPDEST POP PUSH2 0x2DC PUSH2 0x69C CALLDATASIZE PUSH1 0x4 PUSH2 0x1B80 JUMP JUMPDEST PUSH2 0x1642 JUMP JUMPDEST CALLVALUE DUP1 ISZERO PUSH2 0x6AC JUMPI PUSH0 DUP1 REVERT JUMPDEST POP PUSH2 0x24B PUSH2 0x6BB CALLDATASIZE PUSH1 0x4 PUSH2 0x1C8B JUMP JUMPDEST PUSH2 0x1674 JUMP JUMPDEST CALLVALUE DUP1 ISZERO PUSH2 0x6CB JUMPI PUSH0 DUP1 REVERT JUMPDEST POP PUSH2 0x24B PUSH2 0x6DA CALLDATASIZE PUSH1 0x4 PUSH2 0x1BB2 JUMP JUMPDEST PUSH2 0x1724 JUMP JUMPDEST PUSH2 0x24B PUSH2 0x6ED CALLDATASIZE PUSH1 0x4 PUSH2 0x1C6B JUMP JUMPDEST PUSH2 0x1761 JUMP JUMPDEST PUSH2 0x6FA PUSH2 0x1AF8 JUMP JUMPDEST PUSH0 PUSH2 0x704 DUP3 PUSH2 0x752 JUMP JUMPDEST PUSH1 0x1 PUSH1 0x1 PUSH1 0xA0 SHL SUB DUP2 AND PUSH0 SWAP1 DUP2 MSTORE PUSH1 0x10 PUSH1 0x20 MSTORE PUSH1 0x40 SWAP1 KECCAK256 SLOAD SWAP1 SWAP2 POP PUSH1 0xFF AND PUSH2 0x72F JUMPI PUSH2 0x72F DUP3 PUSH2 0xD85 JUMP JUMPDEST PUSH1 0xD DUP1 SLOAD PUSH1 0x1 PUSH1 0x1 PUSH1 0xA0 SHL SUB NOT AND PUSH1 0x1 PUSH1 0x1 PUSH1 0xA0 SHL SUB SWAP3 SWAP1 SWAP3 AND SWAP2 SWAP1 SWAP2 OR SWAP1 SSTORE POP JUMP JUMPDEST PUSH0 DUP1 PUSH2 0x75D DUP4 PUSH2 0x1642 JUMP JUMPDEST SWAP1 POP PUSH0 PUSH2 0x768 PUSH2 0xF74 JUMP JUMPDEST PUSH1 0x40 MLOAD PUSH1 0x1 PUSH1 0x1 PUSH1 0xF8 SHL SUB NOT PUSH1 0x20 DUP3 ADD MSTORE PUSH12 0xFFFFFFFFFFFFFFFFFFFFFFFF NOT ADDRESS PUSH1 0x60 SHL AND PUSH1 0x21 DUP3 ADD MSTORE PUSH1 0x35 DUP2 ADD DUP5 SWAP1 MSTORE PUSH1 0x55 DUP2 ADD DUP3 SWAP1 MSTORE SWAP1 SWAP2 POP PUSH1 0x75 ADD PUSH1 0x40 DUP1 MLOAD PUSH1 0x1F NOT DUP2 DUP5 SUB ADD DUP2 MSTORE SWAP2 SWAP1 MSTORE DUP1 MLOAD PUSH1 0x20 SWAP1 SWAP2 ADD KECCAK256 SWAP5 SWAP4 POP POP POP POP JUMP JUMPDEST PUSH2 0x7CD PUSH2 0x1AF8 JUMP JUMPDEST PUSH1 0x64 DUP2 GT ISZERO PUSH2 0x7F7 JUMPI PUSH1 0x40 MLOAD PUSH3 0x461BCD PUSH1 0xE5 SHL DUP2 MSTORE PUSH1 0x4 ADD PUSH2 0x7EE SWAP1 PUSH2 0x1CBC JUMP JUMPDEST PUSH1 0x40 MLOAD DUP1 SWAP2 SUB SWAP1 REVERT JUMPDEST PUSH1 0xB DUP2 SWAP1 SSTORE PUSH2 0x807 DUP2 PUSH1 0x64 PUSH2 0x1D26 JUMP JUMPDEST PUSH1 0xA SSTORE POP JUMP JUMPDEST PUSH2 0x815 PUSH2 0x1AF8 JUMP JUMPDEST PUSH1 0x9 SSTORE JUMP JUMPDEST PUSH1 0xF SLOAD PUSH1 0x1 PUSH1 0x1 PUSH1 0xA0 SHL SUB AND CALLER PUSH1 0x1 PUSH1 0x1 PUSH1 0xA0 SHL SUB AND EQ DUP1 PUSH2 0x84F JUMPI POP PUSH1 0xE SLOAD PUSH1 0x1 PUSH1 0x1 PUSH1 0xA0 SHL SUB AND CALLER PUSH1 0x1 PUSH1 0x1 PUSH1 0xA0 SHL SUB AND EQ JUMPDEST DUP1 PUSH2 0x863 JUMPI POP PUSH0 SLOAD PUSH1 0x1 PUSH1 0x1 PUSH1 0xA0 SHL SUB AND CALLER EQ JUMPDEST PUSH2 0x87F JUMPI PUSH1 0x40 MLOAD PUSH3 0x461BCD PUSH1 0xE5 SHL DUP2 MSTORE PUSH1 0x4 ADD PUSH2 0x7EE SWAP1 PUSH2 0x1D3F JUMP JUMPDEST PUSH0 DUP1 DUP5 PUSH1 0x2 DUP2 GT ISZERO PUSH2 0x893 JUMPI PUSH2 0x893 PUSH2 0x1D6B JUMP JUMPDEST SUB PUSH2 0x8AA JUMPI POP PUSH1 0x1 SLOAD PUSH1 0x1 PUSH1 0x1 PUSH1 0xA0 SHL SUB AND PUSH2 0x8FC JUMP JUMPDEST PUSH1 0x2 DUP5 PUSH1 0x2 DUP2 GT ISZERO PUSH2 0x8BE JUMPI PUSH2 0x8BE PUSH2 0x1D6B JUMP JUMPDEST SUB PUSH2 0x8D5 JUMPI POP PUSH1 0x3 SLOAD PUSH1 0x1 PUSH1 0x1 PUSH1 0xA0 SHL SUB AND PUSH2 0x8FC JUMP JUMPDEST PUSH1 0x1 DUP5 PUSH1 0x2 DUP2 GT ISZERO PUSH2 0x8E9 JUMPI PUSH2 0x8E9 PUSH2 0x1D6B JUMP JUMPDEST SUB PUSH2 0x8FC JUMPI POP PUSH1 0x2 SLOAD PUSH1 0x1 PUSH1 0x1 PUSH1 0xA0 SHL SUB AND JUMPDEST PUSH1 0xD SLOAD PUSH1 0x40 MLOAD PUSH4 0x70A08231 PUSH1 0xE0 SHL DUP2 MSTORE PUSH1 0x1 PUSH1 0x1 PUSH1 0xA0 SHL SUB SWAP2 DUP3 AND PUSH1 0x4 DUP3 ADD MSTORE DUP4 SWAP2 DUP4 AND SWAP1 PUSH4 0x70A08231 SWAP1 PUSH1 0x24 ADD PUSH1 0x20 PUSH1 0x40 MLOAD DUP1 DUP4 SUB DUP2 DUP7 GAS STATICCALL ISZERO DUP1 ISZERO PUSH2 0x945 JUMPI RETURNDATASIZE PUSH0 DUP1 RETURNDATACOPY RETURNDATASIZE PUSH0 REVERT JUMPDEST POP POP POP POP PUSH1 0x40 MLOAD RETURNDATASIZE PUSH1 0x1F NOT PUSH1 0x1F DUP3 ADD AND DUP3 ADD DUP1 PUSH1 0x40 MSTORE POP DUP2 ADD SWAP1 PUSH2 0x969 SWAP2 SWAP1 PUSH2 0x1D7F JUMP JUMPDEST LT ISZERO PUSH2 0x9D1 JUMPI PUSH1 0x40 MLOAD PUSH3 0x461BCD PUSH1 0xE5 SHL DUP2 MSTORE PUSH1 0x20 PUSH1 0x4 DUP3 ADD MSTORE PUSH1 0x31 PUSH1 0x24 DUP3 ADD MSTORE PUSH32 0x57697468647261773A20496E73756666696369656E742062616C616E63652069 PUSH1 0x44 DUP3 ADD MSTORE PUSH17 0x1B881D1A1948189BDD1D1BDB481C1BDBDB PUSH1 0x7A SHL PUSH1 0x64 DUP3 ADD MSTORE PUSH1 0x84 ADD PUSH2 0x7EE JUMP JUMPDEST PUSH1 0xD SLOAD PUSH1 0x40 MLOAD PUSH4 0x7AA9BF6F PUSH1 0xE1 SHL DUP2 MSTORE PUSH1 0x1 PUSH1 0x1 PUSH1 0xA0 SHL SUB SWAP1 SWAP2 AND SWAP1 PUSH4 0xF5537EDE SWAP1 PUSH2 0xA05 SWAP1 DUP5 SWAP1 DUP8 SWAP1 DUP8 SWAP1 PUSH1 0x4 ADD PUSH2 0x1D96 JUMP JUMPDEST PUSH1 0x20 PUSH1 0x40 MLOAD DUP1 DUP4 SUB DUP2 PUSH0 DUP8 GAS CALL ISZERO DUP1 ISZERO PUSH2 0xA21 JUMPI RETURNDATASIZE PUSH0 DUP1 RETURNDATACOPY RETURNDATASIZE PUSH0 REVERT JUMPDEST POP POP POP POP PUSH1 0x40 MLOAD RETURNDATASIZE PUSH1 0x1F NOT PUSH1 0x1F DUP3 ADD AND DUP3 ADD DUP1 PUSH1 0x40 MSTORE POP DUP2 ADD SWAP1 PUSH2 0xA45 SWAP2 SWAP1 PUSH2 0x1D7F JUMP JUMPDEST POP PUSH32 0x9B1BFA7FA9EE420A16E124F794C35AC9F90472ACC99140EB2F6447C714CAD8EB DUP2 DUP5 DUP5 PUSH1 0x40 MLOAD PUSH2 0xA79 SWAP4 SWAP3 SWAP2 SWAP1 PUSH2 0x1D96 JUMP JUMPDEST PUSH1 0x40 MLOAD DUP1 SWAP2 SUB SWAP1 LOG1 POP POP POP POP JUMP JUMPDEST PUSH2 0xA8F PUSH2 0x1AF8 JUMP JUMPDEST PUSH2 0xA98 PUSH0 PUSH2 0x1B24 JUMP JUMPDEST JUMP JUMPDEST PUSH1 0xF SLOAD PUSH1 0x1 PUSH1 0x1 PUSH1 0xA0 SHL SUB AND CALLER PUSH1 0x1 PUSH1 0x1 PUSH1 0xA0 SHL SUB AND EQ DUP1 PUSH2 0xACF JUMPI POP PUSH1 0xE SLOAD PUSH1 0x1 PUSH1 0x1 PUSH1 0xA0 SHL SUB AND CALLER PUSH1 0x1 PUSH1 0x1 PUSH1 0xA0 SHL SUB AND EQ JUMPDEST DUP1 PUSH2 0xAE3 JUMPI POP PUSH0 SLOAD PUSH1 0x1 PUSH1 0x1 PUSH1 0xA0 SHL SUB AND CALLER EQ JUMPDEST PUSH2 0xAFF JUMPI PUSH1 0x40 MLOAD PUSH3 0x461BCD PUSH1 0xE5 SHL DUP2 MSTORE PUSH1 0x4 ADD PUSH2 0x7EE SWAP1 PUSH2 0x1D3F JUMP JUMPDEST PUSH0 PUSH2 0xB09 DUP5 PUSH2 0x752 JUMP JUMPDEST PUSH1 0x1 SLOAD PUSH1 0x40 MLOAD PUSH4 0x70A08231 PUSH1 0xE0 SHL DUP2 MSTORE PUSH1 0x1 PUSH1 0x1 PUSH1 0xA0 SHL SUB DUP1 DUP5 AND PUSH1 0x4 DUP4 ADD MSTORE SWAP3 SWAP4 POP DUP6 SWAP3 SWAP1 SWAP2 AND SWAP1 PUSH4 0x70A08231 SWAP1 PUSH1 0x24 ADD PUSH1 0x20 PUSH1 0x40 MLOAD DUP1 DUP4 SUB DUP2 DUP7 GAS STATICCALL ISZERO DUP1 ISZERO PUSH2 0xB56 JUMPI RETURNDATASIZE PUSH0 DUP1 RETURNDATACOPY RETURNDATASIZE PUSH0 REVERT JUMPDEST POP POP POP POP PUSH1 0x40 MLOAD RETURNDATASIZE PUSH1 0x1F NOT PUSH1 0x1F DUP3 ADD AND DUP3 ADD DUP1 PUSH1 0x40 MSTORE POP DUP2 ADD SWAP1 PUSH2 0xB7A SWAP2 SWAP1 PUSH2 0x1D7F JUMP JUMPDEST LT ISZERO PUSH2 0xB98 JUMPI PUSH1 0x40 MLOAD PUSH3 0x461BCD PUSH1 0xE5 SHL DUP2 MSTORE PUSH1 0x4 ADD PUSH2 0x7EE SWAP1 PUSH2 0x1DBA JUMP JUMPDEST PUSH1 0x1 SLOAD PUSH1 0x40 MLOAD PUSH4 0x70A08231 PUSH1 0xE0 SHL DUP2 MSTORE PUSH1 0x1 PUSH1 0x1 PUSH1 0xA0 SHL SUB DUP4 DUP2 AND PUSH1 0x4 DUP4 ADD MSTORE DUP5 SWAP3 AND SWAP1 PUSH4 0x70A08231 SWAP1 PUSH1 0x24 ADD PUSH1 0x20 PUSH1 0x40 MLOAD DUP1 DUP4 SUB DUP2 DUP7 GAS STATICCALL ISZERO DUP1 ISZERO PUSH2 0xBE0 JUMPI RETURNDATASIZE PUSH0 DUP1 RETURNDATACOPY RETURNDATASIZE PUSH0 REVERT JUMPDEST POP POP POP POP PUSH1 0x40 MLOAD RETURNDATASIZE PUSH1 0x1F NOT PUSH1 0x1F DUP3 ADD AND DUP3 ADD DUP1 PUSH1 0x40 MSTORE POP DUP2 ADD SWAP1 PUSH2 0xC04 SWAP2 SWAP1 PUSH2 0x1D7F JUMP JUMPDEST LT ISZERO PUSH2 0xC22 JUMPI PUSH1 0x40 MLOAD PUSH3 0x461BCD PUSH1 0xE5 SHL DUP2 MSTORE PUSH1 0x4 ADD PUSH2 0x7EE SWAP1 PUSH2 0x1DBA JUMP JUMPDEST PUSH1 0x1 SLOAD PUSH1 0x40 MLOAD PUSH4 0x23B872DD PUSH1 0xE0 SHL DUP2 MSTORE PUSH1 0x1 PUSH1 0x1 PUSH1 0xA0 SHL SUB SWAP1 SWAP2 AND SWAP1 PUSH4 0x23B872DD SWAP1 PUSH2 0xC56 SWAP1 DUP5 SWAP1 PUSH0 SWAP1 DUP9 SWAP1 PUSH1 0x4 ADD PUSH2 0x1D96 JUMP JUMPDEST PUSH1 0x20 PUSH1 0x40 MLOAD DUP1 DUP4 SUB DUP2 PUSH0 DUP8 GAS CALL ISZERO DUP1 ISZERO PUSH2 0xC72 JUMPI RETURNDATASIZE PUSH0 DUP1 RETURNDATACOPY RETURNDATASIZE PUSH0 REVERT JUMPDEST POP POP POP POP PUSH1 0x40 MLOAD RETURNDATASIZE PUSH1 0x1F NOT PUSH1 0x1F DUP3 ADD AND DUP3 ADD DUP1 PUSH1 0x40 MSTORE POP DUP2 ADD SWAP1 PUSH2 0xC96 SWAP2 SWAP1 PUSH2 0x1E10 JUMP JUMPDEST POP DUP3 PUSH1 0x5 PUSH0 DUP3 DUP3 SLOAD PUSH2 0xCA8 SWAP2 SWAP1 PUSH2 0x1D26 JUMP JUMPDEST SWAP1 SWAP2 SSTORE POP POP PUSH1 0x2 SLOAD PUSH1 0x40 MLOAD PUSH4 0x23B872DD PUSH1 0xE0 SHL DUP2 MSTORE PUSH1 0x1 PUSH1 0x1 PUSH1 0xA0 SHL SUB SWAP1 SWAP2 AND SWAP1 PUSH4 0x23B872DD SWAP1 PUSH2 0xCE1 SWAP1 DUP5 SWAP1 PUSH0 SWAP1 DUP8 SWAP1 PUSH1 0x4 ADD PUSH2 0x1D96 JUMP JUMPDEST PUSH1 0x20 PUSH1 0x40 MLOAD DUP1 DUP4 SUB DUP2 PUSH0 DUP8 GAS CALL ISZERO DUP1 ISZERO PUSH2 0xCFD JUMPI RETURNDATASIZE PUSH0 DUP1 RETURNDATACOPY RETURNDATASIZE PUSH0 REVERT JUMPDEST POP POP POP POP PUSH1 0x40 MLOAD RETURNDATASIZE PUSH1 0x1F NOT PUSH1 0x1F DUP3 ADD AND DUP3 ADD DUP1 PUSH1 0x40 MSTORE POP DUP2 ADD SWAP1 PUSH2 0xD21 SWAP2 SWAP1 PUSH2 0x1E10 JUMP JUMPDEST POP DUP2 PUSH1 0x6 PUSH0 DUP3 DUP3 SLOAD PUSH2 0xD33 SWAP2 SWAP1 PUSH2 0x1D26 JUMP JUMPDEST SWAP1 SWAP2 SSTORE POP POP PUSH1 0x40 DUP1 MLOAD DUP6 DUP2 MSTORE PUSH1 0x1 PUSH1 0x1 PUSH1 0xA0 SHL SUB DUP4 AND PUSH1 0x20 DUP3 ADD MSTORE SWAP1 DUP2 ADD DUP5 SWAP1 MSTORE PUSH1 0x60 DUP2 ADD DUP4 SWAP1 MSTORE PUSH32 0x12301BD8B56149A2D9ACF3A39FFA806CDCB3DA352FD558593637A9CCF3E98BF2 SWAP1 PUSH1 0x80 ADD PUSH2 0xA79 JUMP JUMPDEST PUSH2 0xD8D PUSH2 0x1AF8 JUMP JUMPDEST PUSH0 PUSH2 0xD97 DUP3 PUSH2 0x1642 JUMP JUMPDEST SWAP1 POP PUSH0 DUP2 PUSH1 0x40 MLOAD PUSH2 0xDA7 SWAP1 PUSH2 0x1B73 JUMP JUMPDEST DUP2 SWAP1 PUSH1 0x40 MLOAD DUP1 SWAP2 SUB SWAP1 PUSH0 CREATE2 SWAP1 POP DUP1 ISZERO DUP1 ISZERO PUSH2 0xDC4 JUMPI RETURNDATASIZE PUSH0 DUP1 RETURNDATACOPY RETURNDATASIZE PUSH0 REVERT JUMPDEST POP PUSH1 0x1 PUSH1 0x1 PUSH1 0xA0 SHL SUB DUP2 AND PUSH0 DUP2 DUP2 MSTORE PUSH1 0x10 PUSH1 0x20 SWAP1 DUP2 MSTORE PUSH1 0x40 SWAP2 DUP3 SWAP1 KECCAK256 DUP1 SLOAD PUSH1 0xFF NOT AND PUSH1 0x1 OR SWAP1 SSTORE SWAP1 MLOAD SWAP2 DUP3 MSTORE SWAP2 SWAP3 POP PUSH32 0xE3758539C1BD6726422843471B2886C2D2CEFD3B4AEAD6778386283E20A32A80 SWAP2 ADD PUSH1 0x40 MLOAD DUP1 SWAP2 SUB SWAP1 LOG1 POP POP POP JUMP JUMPDEST PUSH1 0x11 PUSH1 0x20 MSTORE DUP2 PUSH0 MSTORE PUSH1 0x40 PUSH0 KECCAK256 DUP2 DUP2 SLOAD DUP2 LT PUSH2 0xE3C JUMPI PUSH0 DUP1 REVERT JUMPDEST PUSH0 SWAP2 DUP3 MSTORE PUSH1 0x20 SWAP1 SWAP2 KECCAK256 PUSH1 0xA SWAP1 SWAP2 MUL ADD DUP1 SLOAD PUSH1 0x1 DUP3 ADD SLOAD PUSH1 0x2 DUP4 ADD SLOAD PUSH1 0x3 DUP5 ADD SLOAD PUSH1 0x4 DUP6 ADD SLOAD PUSH1 0x5 DUP7 ADD SLOAD PUSH1 0x6 DUP8 ADD SLOAD PUSH1 0x7 DUP9 ADD SLOAD PUSH1 0x8 DUP10 ADD SLOAD PUSH1 0x9 SWAP1 SWAP10 ADD SLOAD PUSH1 0x1 PUSH1 0x1 PUSH1 0xA0 SHL SUB SWAP1 SWAP9 AND SWAP11 POP SWAP6 SWAP9 POP SWAP4 SWAP7 SWAP3 SWAP6 SWAP2 SWAP5 SWAP1 SWAP4 SWAP3 SWAP1 SWAP2 PUSH1 0xFF AND DUP11 JUMP JUMPDEST PUSH0 PUSH1 0x5 SLOAD PUSH0 EQ DUP1 ISZERO PUSH2 0xEAE JUMPI POP PUSH1 0x6 SLOAD ISZERO JUMPDEST ISZERO PUSH2 0xEBA JUMPI POP PUSH1 0x7 SLOAD SWAP1 JUMP JUMPDEST PUSH1 0x5 SLOAD PUSH1 0x6 SLOAD PUSH2 0xECA SWAP2 SWAP1 PUSH2 0x1E2F JUMP JUMPDEST SWAP1 POP SWAP1 JUMP JUMPDEST PUSH1 0xE SLOAD PUSH1 0x1 PUSH1 0x1 PUSH1 0xA0 SHL SUB AND CALLER PUSH1 0x1 PUSH1 0x1 PUSH1 0xA0 SHL SUB AND EQ DUP1 PUSH2 0xEFA JUMPI POP PUSH0 SLOAD PUSH1 0x1 PUSH1 0x1 PUSH1 0xA0 SHL SUB AND CALLER EQ JUMPDEST PUSH2 0xF16 JUMPI PUSH1 0x40 MLOAD PUSH3 0x461BCD PUSH1 0xE5 SHL DUP2 MSTORE PUSH1 0x4 ADD PUSH2 0x7EE SWAP1 PUSH2 0x1E4E JUMP JUMPDEST PUSH1 0x7 SSTORE JUMP JUMPDEST PUSH1 0xE SLOAD PUSH0 SWAP1 PUSH1 0x1 PUSH1 0x1 PUSH1 0xA0 SHL SUB AND CALLER PUSH1 0x1 PUSH1 0x1 PUSH1 0xA0 SHL SUB AND EQ DUP1 PUSH2 0xF48 JUMPI POP PUSH0 SLOAD PUSH1 0x1 PUSH1 0x1 PUSH1 0xA0 SHL SUB AND CALLER EQ JUMPDEST PUSH2 0xF64 JUMPI PUSH1 0x40 MLOAD PUSH3 0x461BCD PUSH1 0xE5 SHL DUP2 MSTORE PUSH1 0x4 ADD PUSH2 0x7EE SWAP1 PUSH2 0x1E4E JUMP JUMPDEST POP PUSH1 0xC SLOAD PUSH1 0x1 PUSH1 0x1 PUSH1 0xA0 SHL SUB AND SWAP1 JUMP JUMPDEST PUSH0 PUSH1 0x40 MLOAD DUP1 PUSH1 0x20 ADD PUSH2 0xF85 SWAP1 PUSH2 0x1B73 JUMP JUMPDEST PUSH1 0x20 DUP3 ADD DUP2 SUB DUP3 MSTORE PUSH1 0x1F NOT PUSH1 0x1F DUP3 ADD AND PUSH1 0x40 MSTORE POP DUP1 MLOAD SWAP1 PUSH1 0x20 ADD KECCAK256 SWAP1 POP SWAP1 JUMP JUMPDEST PUSH1 0xE SLOAD PUSH0 SWAP1 PUSH1 0x1 PUSH1 0x1 PUSH1 0xA0 SHL SUB AND CALLER PUSH1 0x1 PUSH1 0x1 PUSH1 0xA0 SHL SUB AND EQ DUP1 PUSH2 0xFD2 JUMPI POP PUSH0 SLOAD PUSH1 0x1 PUSH1 0x1 PUSH1 0xA0 SHL SUB AND CALLER EQ JUMPDEST PUSH2 0xFEE JUMPI PUSH1 0x40 MLOAD PUSH3 0x461BCD PUSH1 0xE5 SHL DUP2 MSTORE PUSH1 0x4 ADD PUSH2 0x7EE SWAP1 PUSH2 0x1E4E JUMP JUMPDEST POP PUSH1 0xF SLOAD PUSH1 0x1 PUSH1 0x1 PUSH1 0xA0 SHL SUB AND SWAP1 JUMP JUMPDEST PUSH2 0x1006 PUSH2 0x1AF8 JUMP JUMPDEST PUSH1 0x64 DUP2 GT ISZERO PUSH2 0x1027 JUMPI PUSH1 0x40 MLOAD PUSH3 0x461BCD PUSH1 0xE5 SHL DUP2 MSTORE PUSH1 0x4 ADD PUSH2 0x7EE SWAP1 PUSH2 0x1CBC JUMP JUMPDEST PUSH1 0xA DUP2 SWAP1 SSTORE PUSH2 0x1037 DUP2 PUSH1 0x64 PUSH2 0x1D26 JUMP JUMPDEST PUSH1 0xB SSTORE POP JUMP JUMPDEST PUSH1 0xF SLOAD PUSH1 0x1 PUSH1 0x1 PUSH1 0xA0 SHL SUB AND CALLER PUSH1 0x1 PUSH1 0x1 PUSH1 0xA0 SHL SUB AND EQ DUP1 PUSH2 0x1072 JUMPI POP PUSH1 0xE SLOAD PUSH1 0x1 PUSH1 0x1 PUSH1 0xA0 SHL SUB AND CALLER PUSH1 0x1 PUSH1 0x1 PUSH1 0xA0 SHL SUB AND EQ JUMPDEST DUP1 PUSH2 0x1086 JUMPI POP PUSH0 SLOAD PUSH1 0x1 PUSH1 0x1 PUSH1 0xA0 SHL SUB AND CALLER EQ JUMPDEST PUSH2 0x10A2 JUMPI PUSH1 0x40 MLOAD PUSH3 0x461BCD PUSH1 0xE5 SHL DUP2 MSTORE PUSH1 0x4 ADD PUSH2 0x7EE SWAP1 PUSH2 0x1D3F JUMP JUMPDEST PUSH0 PUSH2 0x10AB PUSH2 0xE9C JUMP JUMPDEST SWAP1 POP PUSH0 PUSH2 0x10B8 DUP3 DUP5 PUSH2 0x1E2F JUMP JUMPDEST SWAP1 POP PUSH0 PUSH1 0x8 SLOAD PUSH1 0x64 PUSH2 0x10CA SWAP2 SWAP1 PUSH2 0x1D26 JUMP JUMPDEST PUSH2 0x10D5 PUSH1 0x64 DUP5 PUSH2 0x1E2F JUMP JUMPDEST PUSH2 0x10DF SWAP2 SWAP1 PUSH2 0x1E7C JUMP JUMPDEST SWAP1 POP PUSH0 PUSH2 0x10EB DUP7 PUSH2 0x752 JUMP JUMPDEST PUSH1 0x1 PUSH1 0x1 PUSH1 0xA0 SHL SUB DUP2 AND PUSH0 SWAP1 DUP2 MSTORE PUSH1 0x10 PUSH1 0x20 MSTORE PUSH1 0x40 SWAP1 KECCAK256 SLOAD SWAP1 SWAP2 POP PUSH1 0xFF AND PUSH2 0x1116 JUMPI PUSH2 0x1116 DUP7 PUSH2 0xD85 JUMP JUMPDEST PUSH1 0x2 SLOAD PUSH1 0x40 MLOAD PUSH4 0x40C10F19 PUSH1 0xE0 SHL DUP2 MSTORE PUSH1 0x1 PUSH1 0x1 PUSH1 0xA0 SHL SUB DUP4 DUP2 AND PUSH1 0x4 DUP4 ADD MSTORE PUSH1 0x24 DUP3 ADD DUP9 SWAP1 MSTORE SWAP1 SWAP2 AND SWAP1 PUSH4 0x40C10F19 SWAP1 PUSH1 0x44 ADD PUSH0 PUSH1 0x40 MLOAD DUP1 DUP4 SUB DUP2 PUSH0 DUP8 DUP1 EXTCODESIZE ISZERO DUP1 ISZERO PUSH2 0x1161 JUMPI PUSH0 DUP1 REVERT JUMPDEST POP GAS CALL ISZERO DUP1 ISZERO PUSH2 0x1173 JUMPI RETURNDATASIZE PUSH0 DUP1 RETURNDATACOPY RETURNDATASIZE PUSH0 REVERT JUMPDEST POP POP PUSH1 0x1 SLOAD PUSH1 0x40 MLOAD PUSH4 0x40C10F19 PUSH1 0xE0 SHL DUP2 MSTORE PUSH1 0x1 PUSH1 0x1 PUSH1 0xA0 SHL SUB DUP6 DUP2 AND PUSH1 0x4 DUP4 ADD MSTORE PUSH1 0x24 DUP3 ADD DUP8 SWAP1 MSTORE SWAP1 SWAP2 AND SWAP3 POP PUSH4 0x40C10F19 SWAP2 POP PUSH1 0x44 ADD PUSH0 PUSH1 0x40 MLOAD DUP1 DUP4 SUB DUP2 PUSH0 DUP8 DUP1 EXTCODESIZE ISZERO DUP1 ISZERO PUSH2 0x11C2 JUMPI PUSH0 DUP1 REVERT JUMPDEST POP GAS CALL ISZERO DUP1 ISZERO PUSH2 0x11D4 JUMPI RETURNDATASIZE PUSH0 DUP1 RETURNDATACOPY RETURNDATASIZE PUSH0 REVERT JUMPDEST POP POP POP POP DUP5 PUSH1 0x6 PUSH0 DUP3 DUP3 SLOAD PUSH2 0x11E9 SWAP2 SWAP1 PUSH2 0x1E93 JUMP JUMPDEST SWAP3 POP POP DUP2 SWAP1 SSTORE POP DUP2 PUSH1 0x5 PUSH0 DUP3 DUP3 SLOAD PUSH2 0x1201 SWAP2 SWAP1 PUSH2 0x1E93 JUMP JUMPDEST SWAP1 SWAP2 SSTORE POP POP PUSH1 0x1 PUSH1 0x1 PUSH1 0xA0 SHL SUB DUP2 AND PUSH0 SWAP1 DUP2 MSTORE PUSH1 0x12 PUSH1 0x20 MSTORE PUSH1 0x40 DUP2 KECCAK256 DUP1 SLOAD SWAP2 PUSH2 0x1229 DUP4 PUSH2 0x1EA6 JUMP JUMPDEST SWAP1 SWAP2 SSTORE POP POP PUSH1 0x1 PUSH1 0x1 PUSH1 0xA0 SHL SUB DUP2 AND PUSH0 SWAP1 DUP2 MSTORE PUSH1 0x11 PUSH1 0x20 MSTORE PUSH1 0x40 SWAP1 DUP2 SWAP1 KECCAK256 DUP2 MLOAD PUSH2 0x140 DUP2 ADD SWAP1 SWAP3 MSTORE SWAP1 DUP1 CALLER PUSH1 0x1 PUSH1 0x1 PUSH1 0xA0 SHL SUB SWAP1 DUP2 AND DUP3 MSTORE PUSH1 0x20 DUP1 DUP4 ADD DUP12 SWAP1 MSTORE PUSH1 0x40 DUP1 DUP5 ADD DUP12 SWAP1 MSTORE PUSH1 0x60 DUP1 DUP6 ADD DUP12 SWAP1 MSTORE PUSH1 0x80 DUP1 DUP7 ADD DUP11 SWAP1 MSTORE PUSH0 PUSH1 0xA0 DUP1 DUP9 ADD DUP3 SWAP1 MSTORE PUSH1 0xC0 DUP1 DUP10 ADD DUP4 SWAP1 MSTORE TIMESTAMP PUSH1 0xE0 DUP1 DUP12 ADD DUP3 SWAP1 MSTORE PUSH2 0x100 DUP1 DUP13 ADD SWAP3 SWAP1 SWAP3 MSTORE PUSH2 0x120 SWAP11 DUP12 ADD DUP6 SWAP1 MSTORE DUP13 SLOAD PUSH1 0x1 DUP1 DUP3 ADD DUP16 SSTORE SWAP14 DUP7 MSTORE SWAP5 DUP10 SWAP1 KECCAK256 DUP13 MLOAD PUSH1 0xA SWAP1 SWAP7 MUL ADD DUP1 SLOAD PUSH1 0x1 PUSH1 0x1 PUSH1 0xA0 SHL SUB NOT AND SWAP6 DUP12 AND SWAP6 SWAP1 SWAP6 OR DUP6 SSTORE SWAP8 DUP12 ADD MLOAD SWAP12 DUP5 ADD SWAP12 SWAP1 SWAP12 SSTORE DUP10 DUP7 ADD MLOAD PUSH1 0x2 DUP1 DUP6 ADD SWAP2 SWAP1 SWAP2 SSTORE SWAP5 DUP11 ADD MLOAD PUSH1 0x3 DUP5 ADD SSTORE SWAP3 DUP10 ADD MLOAD PUSH1 0x4 DUP1 DUP5 ADD SWAP2 SWAP1 SWAP2 SSTORE SWAP1 DUP10 ADD MLOAD PUSH1 0x5 DUP4 ADD SSTORE SWAP2 DUP9 ADD MLOAD PUSH1 0x6 DUP3 ADD SSTORE SWAP4 DUP8 ADD MLOAD PUSH1 0x7 DUP6 ADD SSTORE SWAP7 DUP7 ADD MLOAD PUSH1 0x8 DUP5 ADD SSTORE SWAP5 SWAP1 SWAP4 ADD MLOAD PUSH1 0x9 SWAP1 SWAP2 ADD DUP1 SLOAD PUSH1 0xFF NOT AND SWAP2 ISZERO ISZERO SWAP2 SWAP1 SWAP2 OR SWAP1 SSTORE SWAP2 SLOAD SWAP1 MLOAD PUSH4 0x70A08231 PUSH1 0xE0 SHL DUP2 MSTORE DUP5 DUP4 AND SWAP4 DUP2 ADD SWAP4 SWAP1 SWAP4 MSTORE PUSH32 0x4DB61F87CBF388B10495CD59446C126BE1AE5CA422FB07C4B611B967541C321A SWAP3 DUP5 SWAP3 DUP11 SWAP3 DUP11 SWAP3 DUP9 SWAP3 SWAP2 SWAP1 SWAP2 AND SWAP1 PUSH4 0x70A08231 SWAP1 PUSH1 0x24 ADD PUSH1 0x20 PUSH1 0x40 MLOAD DUP1 DUP4 SUB DUP2 DUP7 GAS STATICCALL ISZERO DUP1 ISZERO PUSH2 0x13B1 JUMPI RETURNDATASIZE PUSH0 DUP1 RETURNDATACOPY RETURNDATASIZE PUSH0 REVERT JUMPDEST POP POP POP POP PUSH1 0x40 MLOAD RETURNDATASIZE PUSH1 0x1F NOT PUSH1 0x1F DUP3 ADD AND DUP3 ADD DUP1 PUSH1 0x40 MSTORE POP DUP2 ADD SWAP1 PUSH2 0x13D5 SWAP2 SWAP1 PUSH2 0x1D7F JUMP JUMPDEST PUSH1 0x1 SLOAD PUSH1 0x40 MLOAD PUSH4 0x70A08231 PUSH1 0xE0 SHL DUP2 MSTORE PUSH1 0x1 PUSH1 0x1 PUSH1 0xA0 SHL SUB DUP10 DUP2 AND PUSH1 0x4 DUP4 ADD MSTORE SWAP1 SWAP2 AND SWAP1 PUSH4 0x70A08231 SWAP1 PUSH1 0x24 ADD PUSH1 0x20 PUSH1 0x40 MLOAD DUP1 DUP4 SUB DUP2 DUP7 GAS STATICCALL ISZERO DUP1 ISZERO PUSH2 0x141D JUMPI RETURNDATASIZE PUSH0 DUP1 RETURNDATACOPY RETURNDATASIZE PUSH0 REVERT JUMPDEST POP POP POP POP PUSH1 0x40 MLOAD RETURNDATASIZE PUSH1 0x1F NOT PUSH1 0x1F DUP3 ADD AND DUP3 ADD DUP1 PUSH1 0x40 MSTORE POP DUP2 ADD SWAP1 PUSH2 0x1441 SWAP2 SWAP1 PUSH2 0x1D7F JUMP JUMPDEST PUSH1 0x40 DUP1 MLOAD PUSH1 0x1 PUSH1 0x1 PUSH1 0xA0 SHL SUB SWAP1 SWAP8 AND DUP8 MSTORE PUSH1 0x20 DUP8 ADD SWAP6 SWAP1 SWAP6 MSTORE SWAP4 DUP6 ADD SWAP3 SWAP1 SWAP3 MSTORE PUSH1 0x60 DUP5 ADD MSTORE PUSH1 0x80 DUP4 ADD MSTORE PUSH1 0xA0 DUP3 ADD MSTORE PUSH1 0xC0 ADD PUSH1 0x40 MLOAD DUP1 SWAP2 SUB SWAP1 LOG1 POP POP POP POP POP POP JUMP JUMPDEST PUSH1 0xE SLOAD PUSH1 0x1 PUSH1 0x1 PUSH1 0xA0 SHL SUB AND CALLER PUSH1 0x1 PUSH1 0x1 PUSH1 0xA0 SHL SUB AND EQ DUP1 PUSH2 0x14AE JUMPI POP PUSH0 SLOAD PUSH1 0x1 PUSH1 0x1 PUSH1 0xA0 SHL SUB AND CALLER EQ JUMPDEST PUSH2 0x14CA JUMPI PUSH1 0x40 MLOAD PUSH3 0x461BCD PUSH1 0xE5 SHL DUP2 MSTORE PUSH1 0x4 ADD PUSH2 0x7EE SWAP1 PUSH2 0x1E4E JUMP JUMPDEST PUSH1 0x1 PUSH1 0x1 PUSH1 0xA0 SHL SUB DUP2 AND PUSH2 0x1530 JUMPI PUSH1 0x40 MLOAD PUSH3 0x461BCD PUSH1 0xE5 SHL DUP2 MSTORE PUSH1 0x20 PUSH1 0x4 DUP3 ADD MSTORE PUSH1 0x27 PUSH1 0x24 DUP3 ADD MSTORE PUSH32 0x53657474696E67204D616E616765723A204E6F7420616C6C6F77207A65726F20 PUSH1 0x44 DUP3 ADD MSTORE PUSH7 0x61646472657373 PUSH1 0xC8 SHL PUSH1 0x64 DUP3 ADD MSTORE PUSH1 0x84 ADD PUSH2 0x7EE JUMP JUMPDEST PUSH1 0xE DUP1 SLOAD PUSH1 0x1 PUSH1 0x1 PUSH1 0xA0 SHL SUB NOT AND PUSH1 0x1 PUSH1 0x1 PUSH1 0xA0 SHL SUB SWAP3 SWAP1 SWAP3 AND SWAP2 SWAP1 SWAP2 OR SWAP1 SSTORE JUMP JUMPDEST PUSH1 0xE SLOAD PUSH0 SWAP1 PUSH1 0x1 PUSH1 0x1 PUSH1 0xA0 SHL SUB AND CALLER PUSH1 0x1 PUSH1 0x1 PUSH1 0xA0 SHL SUB AND EQ DUP1 PUSH2 0x157F JUMPI POP PUSH0 SLOAD PUSH1 0x1 PUSH1 0x1 PUSH1 0xA0 SHL SUB AND CALLER EQ JUMPDEST PUSH2 0x159B JUMPI PUSH1 0x40 MLOAD PUSH3 0x461BCD PUSH1 0xE5 SHL DUP2 MSTORE PUSH1 0x4 ADD PUSH2 0x7EE SWAP1 PUSH2 0x1E4E JUMP JUMPDEST POP PUSH1 0xE SLOAD PUSH1 0x1 PUSH1 0x1 PUSH1 0xA0 SHL SUB AND SWAP1 JUMP JUMPDEST PUSH2 0x15B3 PUSH2 0x1AF8 JUMP JUMPDEST PUSH1 0x1 PUSH1 0x1 PUSH1 0xA0 SHL SUB DUP2 AND PUSH2 0x1613 JUMPI PUSH1 0x40 MLOAD PUSH3 0x461BCD PUSH1 0xE5 SHL DUP2 MSTORE PUSH1 0x20 PUSH1 0x4 DUP3 ADD MSTORE PUSH1 0x21 PUSH1 0x24 DUP3 ADD MSTORE PUSH32 0x466F756E646174696F6E3A20616464726573732063616E2774206265207A6572 PUSH1 0x44 DUP3 ADD MSTORE PUSH1 0x6F PUSH1 0xF8 SHL PUSH1 0x64 DUP3 ADD MSTORE PUSH1 0x84 ADD PUSH2 0x7EE JUMP JUMPDEST PUSH1 0xC DUP1 SLOAD PUSH1 0x1 PUSH1 0x1 PUSH1 0xA0 SHL SUB NOT AND PUSH1 0x1 PUSH1 0x1 PUSH1 0xA0 SHL SUB SWAP3 SWAP1 SWAP3 AND SWAP2 SWAP1 SWAP2 OR SWAP1 SSTORE JUMP JUMPDEST PUSH2 0x163D PUSH2 0x1AF8 JUMP JUMPDEST PUSH1 0x8 SSTORE JUMP JUMPDEST PUSH1 0x40 DUP1 MLOAD CHAINID PUSH1 0x20 DUP3 ADD MSTORE SWAP1 DUP2 ADD DUP3 SWAP1 MSTORE PUSH0 SWAP1 PUSH1 0x60 ADD PUSH1 0x40 MLOAD PUSH1 0x20 DUP2 DUP4 SUB SUB DUP2 MSTORE SWAP1 PUSH1 0x40 MSTORE DUP1 MLOAD SWAP1 PUSH1 0x20 ADD KECCAK256 SWAP1 POP SWAP2 SWAP1 POP JUMP JUMPDEST PUSH2 0x167C PUSH2 0x1AF8 JUMP JUMPDEST PUSH0 DUP3 PUSH1 0x2 DUP2 GT ISZERO PUSH2 0x168F JUMPI PUSH2 0x168F PUSH2 0x1D6B JUMP JUMPDEST SUB PUSH2 0x16B3 JUMPI PUSH1 0x1 DUP1 SLOAD PUSH1 0x1 PUSH1 0x1 PUSH1 0xA0 SHL SUB NOT AND PUSH1 0x1 PUSH1 0x1 PUSH1 0xA0 SHL SUB DUP4 AND OR SWAP1 SSTORE POP POP JUMP JUMPDEST PUSH1 0x1 DUP3 PUSH1 0x2 DUP2 GT ISZERO PUSH2 0x16C7 JUMPI PUSH2 0x16C7 PUSH2 0x1D6B JUMP JUMPDEST SUB PUSH2 0x16EB JUMPI PUSH1 0x2 DUP1 SLOAD PUSH1 0x1 PUSH1 0x1 PUSH1 0xA0 SHL SUB NOT AND PUSH1 0x1 PUSH1 0x1 PUSH1 0xA0 SHL SUB DUP4 AND OR SWAP1 SSTORE POP POP JUMP JUMPDEST PUSH1 0x2 DUP3 PUSH1 0x2 DUP2 GT ISZERO PUSH2 0x16FF JUMPI PUSH2 0x16FF PUSH2 0x1D6B JUMP JUMPDEST SUB PUSH2 0x1720 JUMPI PUSH1 0x3 DUP1 SLOAD PUSH1 0x1 PUSH1 0x1 PUSH1 0xA0 SHL SUB NOT AND PUSH1 0x1 PUSH1 0x1 PUSH1 0xA0 SHL SUB DUP4 AND OR SWAP1 SSTORE JUMPDEST POP POP JUMP JUMPDEST PUSH2 0x172C PUSH2 0x1AF8 JUMP JUMPDEST PUSH1 0x1 PUSH1 0x1 PUSH1 0xA0 SHL SUB DUP2 AND PUSH2 0x1755 JUMPI PUSH1 0x40 MLOAD PUSH4 0x1E4FBDF7 PUSH1 0xE0 SHL DUP2 MSTORE PUSH0 PUSH1 0x4 DUP3 ADD MSTORE PUSH1 0x24 ADD PUSH2 0x7EE JUMP JUMPDEST PUSH2 0x175E DUP2 PUSH2 0x1B24 JUMP JUMPDEST POP JUMP JUMPDEST PUSH1 0x3 SLOAD DUP2 SWAP1 PUSH1 0x1 PUSH1 0x1 PUSH1 0xA0 SHL SUB AND PUSH4 0x70A08231 CALLER PUSH1 0x40 MLOAD PUSH1 0x1 PUSH1 0x1 PUSH1 0xE0 SHL SUB NOT PUSH1 0xE0 DUP5 SWAP1 SHL AND DUP2 MSTORE PUSH1 0x1 PUSH1 0x1 PUSH1 0xA0 SHL SUB SWAP1 SWAP2 AND PUSH1 0x4 DUP3 ADD MSTORE PUSH1 0x24 ADD PUSH1 0x20 PUSH1 0x40 MLOAD DUP1 DUP4 SUB DUP2 DUP7 GAS STATICCALL ISZERO DUP1 ISZERO PUSH2 0x17B7 JUMPI RETURNDATASIZE PUSH0 DUP1 RETURNDATACOPY RETURNDATASIZE PUSH0 REVERT JUMPDEST POP POP POP POP PUSH1 0x40 MLOAD RETURNDATASIZE PUSH1 0x1F NOT PUSH1 0x1F DUP3 ADD AND DUP3 ADD DUP1 PUSH1 0x40 MSTORE POP DUP2 ADD SWAP1 PUSH2 0x17DB SWAP2 SWAP1 PUSH2 0x1D7F JUMP JUMPDEST LT ISZERO PUSH2 0x1829 JUMPI PUSH1 0x40 MLOAD PUSH3 0x461BCD PUSH1 0xE5 SHL DUP2 MSTORE PUSH1 0x20 PUSH1 0x4 DUP3 ADD MSTORE PUSH1 0x1C PUSH1 0x24 DUP3 ADD MSTORE PUSH32 0x506C656467653A20496E73756666696369656E742062616C616E636500000000 PUSH1 0x44 DUP3 ADD MSTORE PUSH1 0x64 ADD PUSH2 0x7EE JUMP JUMPDEST PUSH0 PUSH2 0x1832 PUSH2 0xE9C JUMP JUMPDEST SWAP1 POP PUSH0 PUSH2 0x183F DUP3 DUP5 PUSH2 0x1E2F JUMP JUMPDEST SWAP1 POP PUSH0 PUSH1 0x8 SLOAD PUSH1 0x64 PUSH2 0x1851 SWAP2 SWAP1 PUSH2 0x1D26 JUMP JUMPDEST PUSH2 0x185C PUSH1 0x64 DUP5 PUSH2 0x1E2F JUMP JUMPDEST PUSH2 0x1866 SWAP2 SWAP1 PUSH2 0x1E7C JUMP JUMPDEST SWAP1 POP PUSH0 PUSH2 0x1872 DUP7 PUSH2 0x752 JUMP JUMPDEST PUSH1 0x1 PUSH1 0x1 PUSH1 0xA0 SHL SUB DUP2 AND PUSH0 SWAP1 DUP2 MSTORE PUSH1 0x10 PUSH1 0x20 MSTORE PUSH1 0x40 SWAP1 KECCAK256 SLOAD SWAP1 SWAP2 POP PUSH1 0xFF AND PUSH2 0x189D JUMPI PUSH2 0x189D DUP7 PUSH2 0xD85 JUMP JUMPDEST PUSH1 0x2 SLOAD PUSH1 0x40 MLOAD PUSH4 0x40C10F19 PUSH1 0xE0 SHL DUP2 MSTORE PUSH1 0x1 PUSH1 0x1 PUSH1 0xA0 SHL SUB DUP4 DUP2 AND PUSH1 0x4 DUP4 ADD MSTORE PUSH1 0x24 DUP3 ADD DUP9 SWAP1 MSTORE SWAP1 SWAP2 AND SWAP1 PUSH4 0x40C10F19 SWAP1 PUSH1 0x44 ADD PUSH0 PUSH1 0x40 MLOAD DUP1 DUP4 SUB DUP2 PUSH0 DUP8 DUP1 EXTCODESIZE ISZERO DUP1 ISZERO PUSH2 0x18E8 JUMPI PUSH0 DUP1 REVERT JUMPDEST POP GAS CALL ISZERO DUP1 ISZERO PUSH2 0x18FA JUMPI RETURNDATASIZE PUSH0 DUP1 RETURNDATACOPY RETURNDATASIZE PUSH0 REVERT JUMPDEST POP POP PUSH1 0x1 SLOAD PUSH1 0x40 MLOAD PUSH4 0x40C10F19 PUSH1 0xE0 SHL DUP2 MSTORE PUSH1 0x1 PUSH1 0x1 PUSH1 0xA0 SHL SUB DUP6 DUP2 AND PUSH1 0x4 DUP4 ADD MSTORE PUSH1 0x24 DUP3 ADD DUP8 SWAP1 MSTORE SWAP1 SWAP2 AND SWAP3 POP PUSH4 0x40C10F19 SWAP2 POP PUSH1 0x44 ADD PUSH0 PUSH1 0x40 MLOAD DUP1 DUP4 SUB DUP2 PUSH0 DUP8 DUP1 EXTCODESIZE ISZERO DUP1 ISZERO PUSH2 0x1949 JUMPI PUSH0 DUP1 REVERT JUMPDEST POP GAS CALL ISZERO DUP1 ISZERO PUSH2 0x195B JUMPI RETURNDATASIZE PUSH0 DUP1 RETURNDATACOPY RETURNDATASIZE PUSH0 REVERT JUMPDEST POP POP POP POP DUP5 PUSH1 0x6 PUSH0 DUP3 DUP3 SLOAD PUSH2 0x1970 SWAP2 SWAP1 PUSH2 0x1E93 JUMP JUMPDEST SWAP3 POP POP DUP2 SWAP1 SSTORE POP DUP2 PUSH1 0x5 PUSH0 DUP3 DUP3 SLOAD PUSH2 0x1988 SWAP2 SWAP1 PUSH2 0x1E93 JUMP JUMPDEST SWAP3 POP POP DUP2 SWAP1 SSTORE POP DUP5 PUSH1 0x4 PUSH0 DUP3 DUP3 SLOAD PUSH2 0x19A0 SWAP2 SWAP1 PUSH2 0x1E93 JUMP JUMPDEST SWAP1 SWAP2 SSTORE POP POP PUSH1 0x3 SLOAD PUSH1 0x1 PUSH1 0x1 PUSH1 0xA0 SHL SUB AND PUSH4 0x23B872DD CALLER PUSH1 0xC SLOAD PUSH1 0xA SLOAD PUSH1 0x1 PUSH1 0x1 PUSH1 0xA0 SHL SUB SWAP1 SWAP2 AND SWAP1 PUSH2 0x19D4 PUSH1 0x64 DUP12 PUSH2 0x1E2F JUMP JUMPDEST PUSH2 0x19DE SWAP2 SWAP1 PUSH2 0x1E7C JUMP JUMPDEST PUSH1 0x40 MLOAD DUP5 PUSH4 0xFFFFFFFF AND PUSH1 0xE0 SHL DUP2 MSTORE PUSH1 0x4 ADD PUSH2 0x19FC SWAP4 SWAP3 SWAP2 SWAP1 PUSH2 0x1D96 JUMP JUMPDEST PUSH1 0x20 PUSH1 0x40 MLOAD DUP1 DUP4 SUB DUP2 PUSH0 DUP8 GAS CALL ISZERO DUP1 ISZERO PUSH2 0x1A18 JUMPI RETURNDATASIZE PUSH0 DUP1 RETURNDATACOPY RETURNDATASIZE PUSH0 REVERT JUMPDEST POP POP POP POP PUSH1 0x40 MLOAD RETURNDATASIZE PUSH1 0x1F NOT PUSH1 0x1F DUP3 ADD AND DUP3 ADD DUP1 PUSH1 0x40 MSTORE POP DUP2 ADD SWAP1 PUSH2 0x1A3C SWAP2 SWAP1 PUSH2 0x1E10 JUMP JUMPDEST POP PUSH1 0x3 SLOAD PUSH1 0x1 PUSH1 0x1 PUSH1 0xA0 SHL SUB AND PUSH4 0x23B872DD CALLER PUSH1 0xD SLOAD PUSH1 0xB SLOAD PUSH1 0x1 PUSH1 0x1 PUSH1 0xA0 SHL SUB SWAP1 SWAP2 AND SWAP1 PUSH2 0x1A6C PUSH1 0x64 DUP12 PUSH2 0x1E2F JUMP JUMPDEST PUSH2 0x1A76 SWAP2 SWAP1 PUSH2 0x1E7C JUMP JUMPDEST PUSH1 0x40 MLOAD DUP5 PUSH4 0xFFFFFFFF AND PUSH1 0xE0 SHL DUP2 MSTORE PUSH1 0x4 ADD PUSH2 0x1A94 SWAP4 SWAP3 SWAP2 SWAP1 PUSH2 0x1D96 JUMP JUMPDEST PUSH1 0x20 PUSH1 0x40 MLOAD DUP1 DUP4 SUB DUP2 PUSH0 DUP8 GAS CALL ISZERO DUP1 ISZERO PUSH2 0x1AB0 JUMPI RETURNDATASIZE PUSH0 DUP1 RETURNDATACOPY RETURNDATASIZE PUSH0 REVERT JUMPDEST POP POP POP POP PUSH1 0x40 MLOAD RETURNDATASIZE PUSH1 0x1F NOT PUSH1 0x1F DUP3 ADD AND DUP3 ADD DUP1 PUSH1 0x40 MSTORE POP DUP2 ADD SWAP1 PUSH2 0x1AD4 SWAP2 SWAP1 PUSH2 0x1E10 JUMP JUMPDEST POP PUSH1 0x1 PUSH1 0x1 PUSH1 0xA0 SHL SUB DUP2 AND PUSH0 SWAP1 DUP2 MSTORE PUSH1 0x12 PUSH1 0x20 MSTORE PUSH1 0x40 DUP2 KECCAK256 DUP1 SLOAD SWAP2 PUSH2 0x1229 DUP4 PUSH2 0x1EA6 JUMP JUMPDEST PUSH0 SLOAD PUSH1 0x1 PUSH1 0x1 PUSH1 0xA0 SHL SUB AND CALLER EQ PUSH2 0xA98 JUMPI PUSH1 0x40 MLOAD PUSH4 0x118CDAA7 PUSH1 0xE0 SHL DUP2 MSTORE CALLER PUSH1 0x4 DUP3 ADD MSTORE PUSH1 0x24 ADD PUSH2 0x7EE JUMP JUMPDEST PUSH0 DUP1 SLOAD PUSH1 0x1 PUSH1 0x1 PUSH1 0xA0 SHL SUB DUP4 DUP2 AND PUSH1 0x1 PUSH1 0x1 PUSH1 0xA0 SHL SUB NOT DUP4 AND DUP2 OR DUP5 SSTORE PUSH1 0x40 MLOAD SWAP2 SWAP1 SWAP3 AND SWAP3 DUP4 SWAP2 PUSH32 0x8BE0079C531659141344CD1FD0A4F28419497F9722A3DAAFE3B4186F6B6457E0 SWAP2 SWAP1 LOG3 POP POP JUMP JUMPDEST PUSH2 0x62F DUP1 PUSH2 0x1EBF DUP4 CODECOPY ADD SWAP1 JUMP JUMPDEST PUSH0 PUSH1 0x20 DUP3 DUP5 SUB SLT ISZERO PUSH2 0x1B90 JUMPI PUSH0 DUP1 REVERT JUMPDEST POP CALLDATALOAD SWAP2 SWAP1 POP JUMP JUMPDEST DUP1 CALLDATALOAD PUSH1 0x1 PUSH1 0x1 PUSH1 0xA0 SHL SUB DUP2 AND DUP2 EQ PUSH2 0x1BAD JUMPI PUSH0 DUP1 REVERT JUMPDEST SWAP2 SWAP1 POP JUMP JUMPDEST PUSH0 PUSH1 0x20 DUP3 DUP5 SUB SLT ISZERO PUSH2 0x1BC2 JUMPI PUSH0 DUP1 REVERT JUMPDEST PUSH2 0x1BCB DUP3 PUSH2 0x1B97 JUMP JUMPDEST SWAP4 SWAP3 POP POP POP JUMP JUMPDEST DUP1 CALLDATALOAD PUSH1 0x3 DUP2 LT PUSH2 0x1BAD JUMPI PUSH0 DUP1 REVERT JUMPDEST PUSH0 DUP1 PUSH0 PUSH1 0x60 DUP5 DUP7 SUB SLT ISZERO PUSH2 0x1BF2 JUMPI PUSH0 DUP1 REVERT JUMPDEST PUSH2 0x1BFB DUP5 PUSH2 0x1BD2 JUMP JUMPDEST SWAP3 POP PUSH2 0x1C09 PUSH1 0x20 DUP6 ADD PUSH2 0x1B97 JUMP JUMPDEST SWAP3 SWAP6 SWAP3 SWAP5 POP POP POP PUSH1 0x40 SWAP2 SWAP1 SWAP2 ADD CALLDATALOAD SWAP1 JUMP JUMPDEST PUSH0 DUP1 PUSH0 PUSH1 0x60 DUP5 DUP7 SUB SLT ISZERO PUSH2 0x1C2C JUMPI PUSH0 DUP1 REVERT JUMPDEST POP POP DUP2 CALLDATALOAD SWAP4 PUSH1 0x20 DUP4 ADD CALLDATALOAD SWAP4 POP PUSH1 0x40 SWAP1 SWAP3 ADD CALLDATALOAD SWAP2 SWAP1 POP JUMP JUMPDEST PUSH0 DUP1 PUSH1 0x40 DUP4 DUP6 SUB SLT ISZERO PUSH2 0x1C54 JUMPI PUSH0 DUP1 REVERT JUMPDEST PUSH2 0x1C5D DUP4 PUSH2 0x1B97 JUMP JUMPDEST SWAP5 PUSH1 0x20 SWAP4 SWAP1 SWAP4 ADD CALLDATALOAD SWAP4 POP POP POP JUMP JUMPDEST PUSH0 DUP1 PUSH1 0x40 DUP4 DUP6 SUB SLT ISZERO PUSH2 0x1C7C JUMPI PUSH0 DUP1 REVERT JUMPDEST POP POP DUP1 CALLDATALOAD SWAP3 PUSH1 0x20 SWAP1 SWAP2 ADD CALLDATALOAD SWAP2 POP JUMP JUMPDEST PUSH0 DUP1 PUSH1 0x40 DUP4 DUP6 SUB SLT ISZERO PUSH2 0x1C9C JUMPI PUSH0 DUP1 REVERT JUMPDEST PUSH2 0x1CA5 DUP4 PUSH2 0x1BD2 JUMP JUMPDEST SWAP2 POP PUSH2 0x1CB3 PUSH1 0x20 DUP5 ADD PUSH2 0x1B97 JUMP JUMPDEST SWAP1 POP SWAP3 POP SWAP3 SWAP1 POP JUMP JUMPDEST PUSH1 0x20 DUP1 DUP3 MSTORE PUSH1 0x36 SWAP1 DUP3 ADD MSTORE PUSH32 0x53657474696E6720706F696E743A20506F696E74206D757374206265206C6573 PUSH1 0x40 DUP3 ADD MSTORE PUSH22 0x73207468616E206F7220657175616C20746F2031303 PUSH1 0x54 SHL PUSH1 0x60 DUP3 ADD MSTORE PUSH1 0x80 ADD SWAP1 JUMP JUMPDEST PUSH4 0x4E487B71 PUSH1 0xE0 SHL PUSH0 MSTORE PUSH1 0x11 PUSH1 0x4 MSTORE PUSH1 0x24 PUSH0 REVERT JUMPDEST DUP2 DUP2 SUB DUP2 DUP2 GT ISZERO PUSH2 0x1D39 JUMPI PUSH2 0x1D39 PUSH2 0x1D12 JUMP JUMPDEST SWAP3 SWAP2 POP POP JUMP JUMPDEST PUSH1 0x20 DUP1 DUP3 MSTORE PUSH1 0x12 SWAP1 DUP3 ADD MSTORE PUSH18 0x53797374656D3A204E6F742073797374656D PUSH1 0x70 SHL PUSH1 0x40 DUP3 ADD MSTORE PUSH1 0x60 ADD SWAP1 JUMP JUMPDEST PUSH4 0x4E487B71 PUSH1 0xE0 SHL PUSH0 MSTORE PUSH1 0x21 PUSH1 0x4 MSTORE PUSH1 0x24 PUSH0 REVERT JUMPDEST PUSH0 PUSH1 0x20 DUP3 DUP5 SUB SLT ISZERO PUSH2 0x1D8F JUMPI PUSH0 DUP1 REVERT JUMPDEST POP MLOAD SWAP2 SWAP1 POP JUMP JUMPDEST PUSH1 0x1 PUSH1 0x1 PUSH1 0xA0 SHL SUB SWAP4 DUP5 AND DUP2 MSTORE SWAP2 SWAP1 SWAP3 AND PUSH1 0x20 DUP3 ADD MSTORE PUSH1 0x40 DUP2 ADD SWAP2 SWAP1 SWAP2 MSTORE PUSH1 0x60 ADD SWAP1 JUMP JUMPDEST PUSH1 0x20 DUP1 DUP3 MSTORE PUSH1 0x36 SWAP1 DUP3 ADD MSTORE PUSH32 0x446573746F72793A20496E73756666696369656E74206163636F756E74206261 PUSH1 0x40 DUP3 ADD MSTORE PUSH22 0x1B185B98D94818D85B8818994819195CDD1C9BDE5959 PUSH1 0x52 SHL PUSH1 0x60 DUP3 ADD MSTORE PUSH1 0x80 ADD SWAP1 JUMP JUMPDEST PUSH0 PUSH1 0x20 DUP3 DUP5 SUB SLT ISZERO PUSH2 0x1E20 JUMPI PUSH0 DUP1 REVERT JUMPDEST DUP2 MLOAD DUP1 ISZERO ISZERO DUP2 EQ PUSH2 0x1BCB JUMPI PUSH0 DUP1 REVERT JUMPDEST PUSH0 DUP3 PUSH2 0x1E49 JUMPI PUSH4 0x4E487B71 PUSH1 0xE0 SHL PUSH0 MSTORE PUSH1 0x12 PUSH1 0x4 MSTORE PUSH1 0x24 PUSH0 REVERT JUMPDEST POP DIV SWAP1 JUMP JUMPDEST PUSH1 0x20 DUP1 DUP3 MSTORE PUSH1 0x14 SWAP1 DUP3 ADD MSTORE PUSH20 0x26B0B730B3B2B91D102737BA1026B0B730B3B2B9 PUSH1 0x61 SHL PUSH1 0x40 DUP3 ADD MSTORE PUSH1 0x60 ADD SWAP1 JUMP JUMPDEST DUP1 DUP3 MUL DUP2 ISZERO DUP3 DUP3 DIV DUP5 EQ OR PUSH2 0x1D39 JUMPI PUSH2 0x1D39 PUSH2 0x1D12 JUMP JUMPDEST DUP1 DUP3 ADD DUP1 DUP3 GT ISZERO PUSH2 0x1D39 JUMPI PUSH2 0x1D39 PUSH2 0x1D12 JUMP JUMPDEST PUSH0 PUSH1 0x1 DUP3 ADD PUSH2 0x1EB7 JUMPI PUSH2 0x1EB7 PUSH2 0x1D12 JUMP JUMPDEST POP PUSH1 0x1 ADD SWAP1 JUMP INVALID PUSH1 0x80 PUSH1 0x40 MSTORE CALLVALUE DUP1 ISZERO PUSH1 0xE JUMPI PUSH0 DUP1 REVERT JUMPDEST POP PUSH0 DUP1 SLOAD PUSH1 0x1 PUSH1 0x1 PUSH1 0xA0 SHL SUB NOT AND CALLER OR SWAP1 SSTORE PUSH2 0x602 DUP1 PUSH2 0x2D PUSH0 CODECOPY PUSH0 RETURN INVALID PUSH1 0x80 PUSH1 0x40 MSTORE PUSH1 0x4 CALLDATASIZE LT PUSH2 0x4C JUMPI PUSH0 CALLDATALOAD PUSH1 0xE0 SHR DUP1 PUSH4 0x3AEAC4E1 EQ PUSH2 0x57 JUMPI DUP1 PUSH4 0x690D8320 EQ PUSH2 0x89 JUMPI DUP1 PUSH4 0xB2BDFA7B EQ PUSH2 0xA8 JUMPI DUP1 PUSH4 0xEB17FBA3 EQ PUSH2 0xDE JUMPI DUP1 PUSH4 0xF5537EDE EQ PUSH2 0xFD JUMPI PUSH0 DUP1 REVERT JUMPDEST CALLDATASIZE PUSH2 0x53 JUMPI STOP JUMPDEST PUSH0 DUP1 REVERT JUMPDEST CALLVALUE DUP1 ISZERO PUSH2 0x62 JUMPI PUSH0 DUP1 REVERT JUMPDEST POP PUSH2 0x76 PUSH2 0x71 CALLDATASIZE PUSH1 0x4 PUSH2 0x49F JUMP JUMPDEST PUSH2 0x11C JUMP JUMPDEST PUSH1 0x40 MLOAD SWAP1 DUP2 MSTORE PUSH1 0x20 ADD JUMPDEST PUSH1 0x40 MLOAD DUP1 SWAP2 SUB SWAP1 RETURN JUMPDEST CALLVALUE DUP1 ISZERO PUSH2 0x94 JUMPI PUSH0 DUP1 REVERT JUMPDEST POP PUSH2 0x76 PUSH2 0xA3 CALLDATASIZE PUSH1 0x4 PUSH2 0x4D0 JUMP JUMPDEST PUSH2 0x1D6 JUMP JUMPDEST CALLVALUE DUP1 ISZERO PUSH2 0xB3 JUMPI PUSH0 DUP1 REVERT JUMPDEST POP PUSH0 SLOAD PUSH2 0xC6 SWAP1 PUSH1 0x1 PUSH1 0x1 PUSH1 0xA0 SHL SUB AND DUP2 JUMP JUMPDEST PUSH1 0x40 MLOAD PUSH1 0x1 PUSH1 0x1 PUSH1 0xA0 SHL SUB SWAP1 SWAP2 AND DUP2 MSTORE PUSH1 0x20 ADD PUSH2 0x80 JUMP JUMPDEST CALLVALUE DUP1 ISZERO PUSH2 0xE9 JUMPI PUSH0 DUP1 REVERT JUMPDEST POP PUSH2 0x76 PUSH2 0xF8 CALLDATASIZE PUSH1 0x4 PUSH2 0x4E9 JUMP JUMPDEST PUSH2 0x24B JUMP JUMPDEST CALLVALUE DUP1 ISZERO PUSH2 0x108 JUMPI PUSH0 DUP1 REVERT JUMPDEST POP PUSH2 0x76 PUSH2 0x117 CALLDATASIZE PUSH1 0x4 PUSH2 0x511 JUMP JUMPDEST PUSH2 0x2C0 JUMP JUMPDEST PUSH0 DUP1 SLOAD PUSH1 0x1 PUSH1 0x1 PUSH1 0xA0 SHL SUB AND CALLER EQ PUSH2 0x14F JUMPI PUSH1 0x40 MLOAD PUSH3 0x461BCD PUSH1 0xE5 SHL DUP2 MSTORE PUSH1 0x4 ADD PUSH2 0x146 SWAP1 PUSH2 0x54B JUMP JUMPDEST PUSH1 0x40 MLOAD DUP1 SWAP2 SUB SWAP1 REVERT JUMPDEST PUSH1 0x40 MLOAD PUSH4 0x70A08231 PUSH1 0xE0 SHL DUP2 MSTORE ADDRESS PUSH1 0x4 DUP3 ADD MSTORE PUSH1 0x1 PUSH1 0x1 PUSH1 0xA0 SHL SUB DUP5 AND SWAP1 PUSH4 0x70A08231 SWAP1 PUSH1 0x24 ADD PUSH1 0x20 PUSH1 0x40 MLOAD DUP1 DUP4 SUB DUP2 DUP7 GAS STATICCALL ISZERO DUP1 ISZERO PUSH2 0x191 JUMPI RETURNDATASIZE PUSH0 DUP1 RETURNDATACOPY RETURNDATASIZE PUSH0 REVERT JUMPDEST POP POP POP POP PUSH1 0x40 MLOAD RETURNDATASIZE PUSH1 0x1F NOT PUSH1 0x1F DUP3 ADD AND DUP3 ADD DUP1 PUSH1 0x40 MSTORE POP DUP2 ADD SWAP1 PUSH2 0x1B5 SWAP2 SWAP1 PUSH2 0x580 JUMP JUMPDEST SWAP1 POP DUP1 PUSH0 SUB PUSH2 0x1C5 JUMPI POP PUSH0 PUSH2 0x1D0 JUMP JUMPDEST PUSH2 0x1D0 DUP4 DUP4 DUP4 PUSH2 0x373 JUMP JUMPDEST SWAP3 SWAP2 POP POP JUMP JUMPDEST PUSH0 DUP1 SLOAD PUSH1 0x1 PUSH1 0x1 PUSH1 0xA0 SHL SUB AND CALLER EQ PUSH2 0x200 JUMPI PUSH1 0x40 MLOAD PUSH3 0x461BCD PUSH1 0xE5 SHL DUP2 MSTORE PUSH1 0x4 ADD PUSH2 0x146 SWAP1 PUSH2 0x54B JUMP JUMPDEST SELFBALANCE SWAP1 POP DUP1 PUSH0 SUB PUSH2 0x211 JUMPI POP PUSH0 SWAP2 SWAP1 POP JUMP JUMPDEST PUSH1 0x40 MLOAD PUSH1 0x1 PUSH1 0x1 PUSH1 0xA0 SHL SUB DUP4 AND SWAP1 DUP3 ISZERO PUSH2 0x8FC MUL SWAP1 DUP4 SWAP1 PUSH0 DUP2 DUP2 DUP2 DUP6 DUP9 DUP9 CALL SWAP4 POP POP POP POP ISZERO DUP1 ISZERO PUSH2 0x244 JUMPI RETURNDATASIZE PUSH0 DUP1 RETURNDATACOPY RETURNDATASIZE PUSH0 REVERT JUMPDEST POP JUMPDEST SWAP2 SWAP1 POP JUMP JUMPDEST PUSH0 DUP1 SLOAD PUSH1 0x1 PUSH1 0x1 PUSH1 0xA0 SHL SUB AND CALLER EQ PUSH2 0x275 JUMPI PUSH1 0x40 MLOAD PUSH3 0x461BCD PUSH1 0xE5 SHL DUP2 MSTORE PUSH1 0x4 ADD PUSH2 0x146 SWAP1 PUSH2 0x54B JUMP JUMPDEST POP SELFBALANCE DUP2 DUP2 LT ISZERO PUSH2 0x286 JUMPI POP PUSH0 PUSH2 0x1D0 JUMP JUMPDEST PUSH1 0x40 MLOAD PUSH1 0x1 PUSH1 0x1 PUSH1 0xA0 SHL SUB DUP5 AND SWAP1 DUP4 ISZERO PUSH2 0x8FC MUL SWAP1 DUP5 SWAP1 PUSH0 DUP2 DUP2 DUP2 DUP6 DUP9 DUP9 CALL SWAP4 POP POP POP POP ISZERO DUP1 ISZERO PUSH2 0x2B9 JUMPI RETURNDATASIZE PUSH0 DUP1 RETURNDATACOPY RETURNDATASIZE PUSH0 REVERT JUMPDEST POP SWAP3 SWAP2 POP POP JUMP JUMPDEST PUSH0 DUP1 SLOAD PUSH1 0x1 PUSH1 0x1 PUSH1 0xA0 SHL SUB AND CALLER EQ PUSH2 0x2EA JUMPI PUSH1 0x40 MLOAD PUSH3 0x461BCD PUSH1 0xE5 SHL DUP2 MSTORE PUSH1 0x4 ADD PUSH2 0x146 SWAP1 PUSH2 0x54B JUMP JUMPDEST PUSH1 0x40 MLOAD PUSH4 0x70A08231 PUSH1 0xE0 SHL DUP2 MSTORE ADDRESS PUSH1 0x4 DUP3 ADD MSTORE PUSH1 0x1 PUSH1 0x1 PUSH1 0xA0 SHL SUB DUP6 AND SWAP1 PUSH4 0x70A08231 SWAP1 PUSH1 0x24 ADD PUSH1 0x20 PUSH1 0x40 MLOAD DUP1 DUP4 SUB DUP2 DUP7 GAS STATICCALL ISZERO DUP1 ISZERO PUSH2 0x32C JUMPI RETURNDATASIZE PUSH0 DUP1 RETURNDATACOPY RETURNDATASIZE PUSH0 REVERT JUMPDEST POP POP POP POP PUSH1 0x40 MLOAD RETURNDATASIZE PUSH1 0x1F NOT PUSH1 0x1F DUP3 ADD AND DUP3 ADD DUP1 PUSH1 0x40 MSTORE POP DUP2 ADD SWAP1 PUSH2 0x350 SWAP2 SWAP1 PUSH2 0x580 JUMP JUMPDEST SWAP1 POP DUP2 DUP2 LT ISZERO PUSH2 0x361 JUMPI POP PUSH0 PUSH2 0x36C JUMP JUMPDEST PUSH2 0x36C DUP5 DUP5 DUP5 PUSH2 0x373 JUMP JUMPDEST SWAP4 SWAP3 POP POP POP JUMP JUMPDEST PUSH1 0x40 DUP1 MLOAD PUSH1 0x1 PUSH1 0x1 PUSH1 0xA0 SHL SUB DUP5 DUP2 AND PUSH1 0x24 DUP4 ADD MSTORE PUSH1 0x44 DUP1 DUP4 ADD DUP6 SWAP1 MSTORE DUP4 MLOAD DUP1 DUP5 SUB SWAP1 SWAP2 ADD DUP2 MSTORE PUSH1 0x64 SWAP1 SWAP3 ADD DUP4 MSTORE PUSH1 0x20 DUP3 ADD DUP1 MLOAD PUSH1 0x1 PUSH1 0x1 PUSH1 0xE0 SHL SUB AND PUSH4 0xA9059CBB PUSH1 0xE0 SHL OR SWAP1 MSTORE SWAP2 MLOAD PUSH0 SWAP3 DUP4 SWAP3 SWAP1 DUP8 AND SWAP2 PUSH2 0x3CE SWAP2 SWAP1 PUSH2 0x597 JUMP JUMPDEST PUSH0 PUSH1 0x40 MLOAD DUP1 DUP4 SUB DUP2 PUSH0 DUP7 GAS CALL SWAP2 POP POP RETURNDATASIZE DUP1 PUSH0 DUP2 EQ PUSH2 0x407 JUMPI PUSH1 0x40 MLOAD SWAP2 POP PUSH1 0x1F NOT PUSH1 0x3F RETURNDATASIZE ADD AND DUP3 ADD PUSH1 0x40 MSTORE RETURNDATASIZE DUP3 MSTORE RETURNDATASIZE PUSH0 PUSH1 0x20 DUP5 ADD RETURNDATACOPY PUSH2 0x40C JUMP JUMPDEST PUSH1 0x60 SWAP2 POP JUMPDEST POP SWAP2 POP SWAP2 POP DUP2 DUP1 ISZERO PUSH2 0x436 JUMPI POP DUP1 MLOAD ISZERO DUP1 PUSH2 0x436 JUMPI POP DUP1 DUP1 PUSH1 0x20 ADD SWAP1 MLOAD DUP2 ADD SWAP1 PUSH2 0x436 SWAP2 SWAP1 PUSH2 0x5AD JUMP JUMPDEST PUSH2 0x482 JUMPI PUSH1 0x40 MLOAD PUSH3 0x461BCD PUSH1 0xE5 SHL DUP2 MSTORE PUSH1 0x20 PUSH1 0x4 DUP3 ADD MSTORE PUSH1 0x1F PUSH1 0x24 DUP3 ADD MSTORE PUSH32 0x5472616E7366657248656C7065723A205452414E534645525F4641494C454400 PUSH1 0x44 DUP3 ADD MSTORE PUSH1 0x64 ADD PUSH2 0x146 JUMP JUMPDEST POP POP POP POP POP JUMP JUMPDEST DUP1 CALLDATALOAD PUSH1 0x1 PUSH1 0x1 PUSH1 0xA0 SHL SUB DUP2 AND DUP2 EQ PUSH2 0x246 JUMPI PUSH0 DUP1 REVERT JUMPDEST PUSH0 DUP1 PUSH1 0x40 DUP4 DUP6 SUB SLT ISZERO PUSH2 0x4B0 JUMPI PUSH0 DUP1 REVERT JUMPDEST PUSH2 0x4B9 DUP4 PUSH2 0x489 JUMP JUMPDEST SWAP2 POP PUSH2 0x4C7 PUSH1 0x20 DUP5 ADD PUSH2 0x489 JUMP JUMPDEST SWAP1 POP SWAP3 POP SWAP3 SWAP1 POP JUMP JUMPDEST PUSH0 PUSH1 0x20 DUP3 DUP5 SUB SLT ISZERO PUSH2 0x4E0 JUMPI PUSH0 DUP1 REVERT JUMPDEST PUSH2 0x36C DUP3 PUSH2 0x489 JUMP JUMPDEST PUSH0 DUP1 PUSH1 0x40 DUP4 DUP6 SUB SLT ISZERO PUSH2 0x4FA JUMPI PUSH0 DUP1 REVERT JUMPDEST PUSH2 0x503 DUP4 PUSH2 0x489 JUMP JUMPDEST SWAP5 PUSH1 0x20 SWAP4 SWAP1 SWAP4 ADD CALLDATALOAD SWAP4 POP POP POP JUMP JUMPDEST PUSH0 DUP1 PUSH0 PUSH1 0x60 DUP5 DUP7 SUB SLT ISZERO PUSH2 0x523 JUMPI PUSH0 DUP1 REVERT JUMPDEST PUSH2 0x52C DUP5 PUSH2 0x489 JUMP JUMPDEST SWAP3 POP PUSH2 0x53A PUSH1 0x20 DUP6 ADD PUSH2 0x489 JUMP JUMPDEST SWAP3 SWAP6 SWAP3 SWAP5 POP POP POP PUSH1 0x40 SWAP2 SWAP1 SWAP2 ADD CALLDATALOAD SWAP1 JUMP JUMPDEST PUSH1 0x20 DUP1 DUP3 MSTORE DUP2 DUP2 ADD MSTORE PUSH32 0x4F776E61626C653A2063616C6C6572206973206E6F7420746865206F776E6572 PUSH1 0x40 DUP3 ADD MSTORE PUSH1 0x60 ADD SWAP1 JUMP JUMPDEST PUSH0 PUSH1 0x20 DUP3 DUP5 SUB SLT ISZERO PUSH2 0x590 JUMPI PUSH0 DUP1 REVERT JUMPDEST POP MLOAD SWAP2 SWAP1 POP JUMP JUMPDEST PUSH0 DUP3 MLOAD DUP1 PUSH1 0x20 DUP6 ADD DUP5 MCOPY PUSH0 SWAP3 ADD SWAP2 DUP3 MSTORE POP SWAP2 SWAP1 POP JUMP JUMPDEST PUSH0 PUSH1 0x20 DUP3 DUP5 SUB SLT ISZERO PUSH2 0x5BD JUMPI PUSH0 DUP1 REVERT JUMPDEST DUP2 MLOAD DUP1 ISZERO ISZERO DUP2 EQ PUSH2 0x36C JUMPI PUSH0 DUP1 REVERT INVALID LOG2 PUSH5 0x6970667358 0x22 SLT KECCAK256 CALLCODE 0xDE PUSH27 0xFA9A93A3E7ADE2341628388C1A941E1243E1D1759C42C57A5CDE3C SUB PUSH0 PUSH5 0x736F6C6343 STOP ADDMOD BYTE STOP CALLER LOG2 PUSH5 0x6970667358 0x22 SLT KECCAK256 0xAD SHR PUSH32 0x707F3C8CF40446E4CB79076623A6317600CB97EB4C6F7590A5068D87F864736F PUSH13 0x634300081A0033608060405234 DUP1 ISZERO PUSH1 0xE JUMPI PUSH0 DUP1 REVERT JUMPDEST POP PUSH0 DUP1 SLOAD PUSH1 0x1 PUSH1 0x1 PUSH1 0xA0 SHL SUB NOT AND CALLER OR SWAP1 SSTORE PUSH2 0x602 DUP1 PUSH2 0x2D PUSH0 CODECOPY PUSH0 RETURN INVALID PUSH1 0x80 PUSH1 0x40 MSTORE PUSH1 0x4 CALLDATASIZE LT PUSH2 0x4C JUMPI PUSH0 CALLDATALOAD PUSH1 0xE0 SHR DUP1 PUSH4 0x3AEAC4E1 EQ PUSH2 0x57 JUMPI DUP1 PUSH4 0x690D8320 EQ PUSH2 0x89 JUMPI DUP1 PUSH4 0xB2BDFA7B EQ PUSH2 0xA8 JUMPI DUP1 PUSH4 0xEB17FBA3 EQ PUSH2 0xDE JUMPI DUP1 PUSH4 0xF5537EDE EQ PUSH2 0xFD JUMPI PUSH0 DUP1 REVERT JUMPDEST CALLDATASIZE PUSH2 0x53 JUMPI STOP JUMPDEST PUSH0 DUP1 REVERT JUMPDEST CALLVALUE DUP1 ISZERO PUSH2 0x62 JUMPI PUSH0 DUP1 REVERT JUMPDEST POP PUSH2 0x76 PUSH2 0x71 CALLDATASIZE PUSH1 0x4 PUSH2 0x49F JUMP JUMPDEST PUSH2 0x11C JUMP JUMPDEST PUSH1 0x40 MLOAD SWAP1 DUP2 MSTORE PUSH1 0x20 ADD JUMPDEST PUSH1 0x40 MLOAD DUP1 SWAP2 SUB SWAP1 RETURN JUMPDEST CALLVALUE DUP1 ISZERO PUSH2 0x94 JUMPI PUSH0 DUP1 REVERT JUMPDEST POP PUSH2 0x76 PUSH2 0xA3 CALLDATASIZE PUSH1 0x4 PUSH2 0x4D0 JUMP JUMPDEST PUSH2 0x1D6 JUMP JUMPDEST CALLVALUE DUP1 ISZERO PUSH2 0xB3 JUMPI PUSH0 DUP1 REVERT JUMPDEST POP PUSH0 SLOAD PUSH2 0xC6 SWAP1 PUSH1 0x1 PUSH1 0x1 PUSH1 0xA0 SHL SUB AND DUP2 JUMP JUMPDEST PUSH1 0x40 MLOAD PUSH1 0x1 PUSH1 0x1 PUSH1 0xA0 SHL SUB SWAP1 SWAP2 AND DUP2 MSTORE PUSH1 0x20 ADD PUSH2 0x80 JUMP JUMPDEST CALLVALUE DUP1 ISZERO PUSH2 0xE9 JUMPI PUSH0 DUP1 REVERT JUMPDEST POP PUSH2 0x76 PUSH2 0xF8 CALLDATASIZE PUSH1 0x4 PUSH2 0x4E9 JUMP JUMPDEST PUSH2 0x24B JUMP JUMPDEST CALLVALUE DUP1 ISZERO PUSH2 0x108 JUMPI PUSH0 DUP1 REVERT JUMPDEST POP PUSH2 0x76 PUSH2 0x117 CALLDATASIZE PUSH1 0x4 PUSH2 0x511 JUMP JUMPDEST PUSH2 0x2C0 JUMP JUMPDEST PUSH0 DUP1 SLOAD PUSH1 0x1 PUSH1 0x1 PUSH1 0xA0 SHL SUB AND CALLER EQ PUSH2 0x14F JUMPI PUSH1 0x40 MLOAD PUSH3 0x461BCD PUSH1 0xE5 SHL DUP2 MSTORE PUSH1 0x4 ADD PUSH2 0x146 SWAP1 PUSH2 0x54B JUMP JUMPDEST PUSH1 0x40 MLOAD DUP1 SWAP2 SUB SWAP1 REVERT JUMPDEST PUSH1 0x40 MLOAD PUSH4 0x70A08231 PUSH1 0xE0 SHL DUP2 MSTORE ADDRESS PUSH1 0x4 DUP3 ADD MSTORE PUSH1 0x1 PUSH1 0x1 PUSH1 0xA0 SHL SUB DUP5 AND SWAP1 PUSH4 0x70A08231 SWAP1 PUSH1 0x24 ADD PUSH1 0x20 PUSH1 0x40 MLOAD DUP1 DUP4 SUB DUP2 DUP7 GAS STATICCALL ISZERO DUP1 ISZERO PUSH2 0x191 JUMPI RETURNDATASIZE PUSH0 DUP1 RETURNDATACOPY RETURNDATASIZE PUSH0 REVERT JUMPDEST POP POP POP POP PUSH1 0x40 MLOAD RETURNDATASIZE PUSH1 0x1F NOT PUSH1 0x1F DUP3 ADD AND DUP3 ADD DUP1 PUSH1 0x40 MSTORE POP DUP2 ADD SWAP1 PUSH2 0x1B5 SWAP2 SWAP1 PUSH2 0x580 JUMP JUMPDEST SWAP1 POP DUP1 PUSH0 SUB PUSH2 0x1C5 JUMPI POP PUSH0 PUSH2 0x1D0 JUMP JUMPDEST PUSH2 0x1D0 DUP4 DUP4 DUP4 PUSH2 0x373 JUMP JUMPDEST SWAP3 SWAP2 POP POP JUMP JUMPDEST PUSH0 DUP1 SLOAD PUSH1 0x1 PUSH1 0x1 PUSH1 0xA0 SHL SUB AND CALLER EQ PUSH2 0x200 JUMPI PUSH1 0x40 MLOAD PUSH3 0x461BCD PUSH1 0xE5 SHL DUP2 MSTORE PUSH1 0x4 ADD PUSH2 0x146 SWAP1 PUSH2 0x54B JUMP JUMPDEST SELFBALANCE SWAP1 POP DUP1 PUSH0 SUB PUSH2 0x211 JUMPI POP PUSH0 SWAP2 SWAP1 POP JUMP JUMPDEST PUSH1 0x40 MLOAD PUSH1 0x1 PUSH1 0x1 PUSH1 0xA0 SHL SUB DUP4 AND SWAP1 DUP3 ISZERO PUSH2 0x8FC MUL SWAP1 DUP4 SWAP1 PUSH0 DUP2 DUP2 DUP2 DUP6 DUP9 DUP9 CALL SWAP4 POP POP POP POP ISZERO DUP1 ISZERO PUSH2 0x244 JUMPI RETURNDATASIZE PUSH0 DUP1 RETURNDATACOPY RETURNDATASIZE PUSH0 REVERT JUMPDEST POP JUMPDEST SWAP2 SWAP1 POP JUMP JUMPDEST PUSH0 DUP1 SLOAD PUSH1 0x1 PUSH1 0x1 PUSH1 0xA0 SHL SUB AND CALLER EQ PUSH2 0x275 JUMPI PUSH1 0x40 MLOAD PUSH3 0x461BCD PUSH1 0xE5 SHL DUP2 MSTORE PUSH1 0x4 ADD PUSH2 0x146 SWAP1 PUSH2 0x54B JUMP JUMPDEST POP SELFBALANCE DUP2 DUP2 LT ISZERO PUSH2 0x286 JUMPI POP PUSH0 PUSH2 0x1D0 JUMP JUMPDEST PUSH1 0x40 MLOAD PUSH1 0x1 PUSH1 0x1 PUSH1 0xA0 SHL SUB DUP5 AND SWAP1 DUP4 ISZERO PUSH2 0x8FC MUL SWAP1 DUP5 SWAP1 PUSH0 DUP2 DUP2 DUP2 DUP6 DUP9 DUP9 CALL SWAP4 POP POP POP POP ISZERO DUP1 ISZERO PUSH2 0x2B9 JUMPI RETURNDATASIZE PUSH0 DUP1 RETURNDATACOPY RETURNDATASIZE PUSH0 REVERT JUMPDEST POP SWAP3 SWAP2 POP POP JUMP JUMPDEST PUSH0 DUP1 SLOAD PUSH1 0x1 PUSH1 0x1 PUSH1 0xA0 SHL SUB AND CALLER EQ PUSH2 0x2EA JUMPI PUSH1 0x40 MLOAD PUSH3 0x461BCD PUSH1 0xE5 SHL DUP2 MSTORE PUSH1 0x4 ADD PUSH2 0x146 SWAP1 PUSH2 0x54B JUMP JUMPDEST PUSH1 0x40 MLOAD PUSH4 0x70A08231 PUSH1 0xE0 SHL DUP2 MSTORE ADDRESS PUSH1 0x4 DUP3 ADD MSTORE PUSH1 0x1 PUSH1 0x1 PUSH1 0xA0 SHL SUB DUP6 AND SWAP1 PUSH4 0x70A08231 SWAP1 PUSH1 0x24 ADD PUSH1 0x20 PUSH1 0x40 MLOAD DUP1 DUP4 SUB DUP2 DUP7 GAS STATICCALL ISZERO DUP1 ISZERO PUSH2 0x32C JUMPI RETURNDATASIZE PUSH0 DUP1 RETURNDATACOPY RETURNDATASIZE PUSH0 REVERT JUMPDEST POP POP POP POP PUSH1 0x40 MLOAD RETURNDATASIZE PUSH1 0x1F NOT PUSH1 0x1F DUP3 ADD AND DUP3 ADD DUP1 PUSH1 0x40 MSTORE POP DUP2 ADD SWAP1 PUSH2 0x350 SWAP2 SWAP1 PUSH2 0x580 JUMP JUMPDEST SWAP1 POP DUP2 DUP2 LT ISZERO PUSH2 0x361 JUMPI POP PUSH0 PUSH2 0x36C JUMP JUMPDEST PUSH2 0x36C DUP5 DUP5 DUP5 PUSH2 0x373 JUMP JUMPDEST SWAP4 SWAP3 POP POP POP JUMP JUMPDEST PUSH1 0x40 DUP1 MLOAD PUSH1 0x1 PUSH1 0x1 PUSH1 0xA0 SHL SUB DUP5 DUP2 AND PUSH1 0x24 DUP4 ADD MSTORE PUSH1 0x44 DUP1 DUP4 ADD DUP6 SWAP1 MSTORE DUP4 MLOAD DUP1 DUP5 SUB SWAP1 SWAP2 ADD DUP2 MSTORE PUSH1 0x64 SWAP1 SWAP3 ADD DUP4 MSTORE PUSH1 0x20 DUP3 ADD DUP1 MLOAD PUSH1 0x1 PUSH1 0x1 PUSH1 0xE0 SHL SUB AND PUSH4 0xA9059CBB PUSH1 0xE0 SHL OR SWAP1 MSTORE SWAP2 MLOAD PUSH0 SWAP3 DUP4 SWAP3 SWAP1 DUP8 AND SWAP2 PUSH2 0x3CE SWAP2 SWAP1 PUSH2 0x597 JUMP JUMPDEST PUSH0 PUSH1 0x40 MLOAD DUP1 DUP4 SUB DUP2 PUSH0 DUP7 GAS CALL SWAP2 POP POP RETURNDATASIZE DUP1 PUSH0 DUP2 EQ PUSH2 0x407 JUMPI PUSH1 0x40 MLOAD SWAP2 POP PUSH1 0x1F NOT PUSH1 0x3F RETURNDATASIZE ADD AND DUP3 ADD PUSH1 0x40 MSTORE RETURNDATASIZE DUP3 MSTORE RETURNDATASIZE PUSH0 PUSH1 0x20 DUP5 ADD RETURNDATACOPY PUSH2 0x40C JUMP JUMPDEST PUSH1 0x60 SWAP2 POP JUMPDEST POP SWAP2 POP SWAP2 POP DUP2 DUP1 ISZERO PUSH2 0x436 JUMPI POP DUP1 MLOAD ISZERO DUP1 PUSH2 0x436 JUMPI POP DUP1 DUP1 PUSH1 0x20 ADD SWAP1 MLOAD DUP2 ADD SWAP1 PUSH2 0x436 SWAP2 SWAP1 PUSH2 0x5AD JUMP JUMPDEST PUSH2 0x482 JUMPI PUSH1 0x40 MLOAD PUSH3 0x461BCD PUSH1 0xE5 SHL DUP2 MSTORE PUSH1 0x20 PUSH1 0x4 DUP3 ADD MSTORE PUSH1 0x1F PUSH1 0x24 DUP3 ADD MSTORE PUSH32 0x5472616E7366657248656C7065723A205452414E534645525F4641494C454400 PUSH1 0x44 DUP3 ADD MSTORE PUSH1 0x64 ADD PUSH2 0x146 JUMP JUMPDEST POP POP POP POP POP JUMP JUMPDEST DUP1 CALLDATALOAD PUSH1 0x1 PUSH1 0x1 PUSH1 0xA0 SHL SUB DUP2 AND DUP2 EQ PUSH2 0x246 JUMPI PUSH0 DUP1 REVERT JUMPDEST PUSH0 DUP1 PUSH1 0x40 DUP4 DUP6 SUB SLT ISZERO PUSH2 0x4B0 JUMPI PUSH0 DUP1 REVERT JUMPDEST PUSH2 0x4B9 DUP4 PUSH2 0x489 JUMP JUMPDEST SWAP2 POP PUSH2 0x4C7 PUSH1 0x20 DUP5 ADD PUSH2 0x489 JUMP JUMPDEST SWAP1 POP SWAP3 POP SWAP3 SWAP1 POP JUMP JUMPDEST PUSH0 PUSH1 0x20 DUP3 DUP5 SUB SLT ISZERO PUSH2 0x4E0 JUMPI PUSH0 DUP1 REVERT JUMPDEST PUSH2 0x36C DUP3 PUSH2 0x489 JUMP JUMPDEST PUSH0 DUP1 PUSH1 0x40 DUP4 DUP6 SUB SLT ISZERO PUSH2 0x4FA JUMPI PUSH0 DUP1 REVERT JUMPDEST PUSH2 0x503 DUP4 PUSH2 0x489 JUMP JUMPDEST SWAP5 PUSH1 0x20 SWAP4 SWAP1 SWAP4 ADD CALLDATALOAD SWAP4 POP POP POP JUMP JUMPDEST PUSH0 DUP1 PUSH0 PUSH1 0x60 DUP5 DUP7 SUB SLT ISZERO PUSH2 0x523 JUMPI PUSH0 DUP1 REVERT JUMPDEST PUSH2 0x52C DUP5 PUSH2 0x489 JUMP JUMPDEST SWAP3 POP PUSH2 0x53A PUSH1 0x20 DUP6 ADD PUSH2 0x489 JUMP JUMPDEST SWAP3 SWAP6 SWAP3 SWAP5 POP POP POP PUSH1 0x40 SWAP2 SWAP1 SWAP2 ADD CALLDATALOAD SWAP1 JUMP JUMPDEST PUSH1 0x20 DUP1 DUP3 MSTORE DUP2 DUP2 ADD MSTORE PUSH32 0x4F776E61626C653A2063616C6C6572206973206E6F7420746865206F776E6572 PUSH1 0x40 DUP3 ADD MSTORE PUSH1 0x60 ADD SWAP1 JUMP JUMPDEST PUSH0 PUSH1 0x20 DUP3 DUP5 SUB SLT ISZERO PUSH2 0x590 JUMPI PUSH0 DUP1 REVERT JUMPDEST POP MLOAD SWAP2 SWAP1 POP JUMP JUMPDEST PUSH0 DUP3 MLOAD DUP1 PUSH1 0x20 DUP6 ADD DUP5 MCOPY PUSH0 SWAP3 ADD SWAP2 DUP3 MSTORE POP SWAP2 SWAP1 POP JUMP JUMPDEST PUSH0 PUSH1 0x20 DUP3 DUP5 SUB SLT ISZERO PUSH2 0x5BD JUMPI PUSH0 DUP1 REVERT JUMPDEST DUP2 MLOAD DUP1 ISZERO ISZERO DUP2 EQ PUSH2 0x36C JUMPI PUSH0 DUP1 REVERT INVALID LOG2 PUSH5 0x6970667358 0x22 SLT KECCAK256 CALLCODE 0xDE PUSH27 0xFA9A93A3E7ADE2341628388C1A941E1243E1D1759C42C57A5CDE3C SUB PUSH0 PUSH5 0x736F6C6343 STOP ADDMOD BYTE STOP CALLER "
		},
		"gasEstimates": {
			"creation": {
				"codeDepositCost": "1901400",
				"executionCost": "infinite",
				"totalCost": "infinite"
			},
			"external": {
				"BOOST()": "2416",
				"USDT()": "2414",
				"USDTB()": "2414",
				"accounts(address)": "2618",
				"claimRate()": "2406",
				"create(uint256)": "infinite",
				"destoryToken(uint256,uint256,uint256)": "infinite",
				"foundationPoint()": "2428",
				"getFoundation()": "6754",
				"getManager()": "6710",
				"getPrice()": "8795",
				"getSaltByUserId(uint256)": "509",
				"getSystem()": "6689",
				"getTokenReceiverBytecodeHash()": "1107",
				"getUserAddr(uint256)": "1609",
				"initPrice()": "2384",
				"mintRate()": "2405",
				"owner()": "2452",
				"pledge(uint256,uint256)": "infinite",
				"pledgeCount(address)": "2628",
				"pledgePool()": "2369",
				"pledgePoolPoint()": "2340",
				"pledges(address,uint256)": "24053",
				"renounceOwnership()": "infinite",
				"setClaimRate(uint256)": "24553",
				"setFoundation(address)": "26878",
				"setFoundationPoint(uint256)": "46765",
				"setInitPrice(uint256)": "26713",
				"setManager(address)": "28951",
				"setMintRate(uint256)": "24618",
				"setPledgePool(uint256)": "infinite",
				"setPledgePoolPoint(uint256)": "46810",
				"setToken(uint8,address)": "infinite",
				"systemPledge(uint256,uint256)": "infinite",
				"totalBoost()": "2384",
				"totalPledge()": "2339",
				"totalUsdt()": "2361",
				"transferOwnership(address)": "28439",
				"withdraw(uint8,address,uint256)": "infinite"
			}
		},
		"methodIdentifiers": {
			"BOOST()": "2a84797f",
			"USDT()": "c54e44eb",
			"USDTB()": "d71051f0",
			"accounts(address)": "5e5c06e2",
			"claimRate()": "898fdf94",
			"create(uint256)": "780900dc",
			"destoryToken(uint256,uint256,uint256)": "75a81dd3",
			"foundationPoint()": "b8823cec",
			"getFoundation()": "a2bc6cdf",
			"getManager()": "d5009584",
			"getPrice()": "98d5fdca",
			"getSaltByUserId(uint256)": "e0e59c4f",
			"getSystem()": "ad0ca906",
			"getTokenReceiverBytecodeHash()": "a81a72a4",
			"getUserAddr(uint256)": "254bd326",
			"initPrice()": "b6add0f4",
			"mintRate()": "ca0dcf16",
			"owner()": "8da5cb5b",
			"pledge(uint256,uint256)": "fde327be",
			"pledgeCount(address)": "b6b4f845",
			"pledgePool()": "de909560",
			"pledgePoolPoint()": "432ed419",
			"pledges(address,uint256)": "8e369531",
			"renounceOwnership()": "715018a6",
			"setClaimRate(uint256)": "4fb320b2",
			"setFoundation(address)": "db3543f5",
			"setFoundationPoint(uint256)": "b583e370",
			"setInitPrice(uint256)": "9bbe5e78",
			"setManager(address)": "d0ebdbe7",
			"setMintRate(uint256)": "dbe2193f",
			"setPledgePool(uint256)": "0ee9a479",
			"setPledgePoolPoint(uint256)": "3054004c",
			"setToken(uint8,address)": "e4105ed5",
			"systemPledge(uint256,uint256)": "cc0111b9",
			"totalBoost()": "7b210b4d",
			"totalPledge()": "c21a43e4",
			"totalUsdt()": "c40cb854",
			"transferOwnership(address)": "f2fde38b",
			"withdraw(uint8,address,uint256)": "70563d6b"
		}
	},
	"abi": [
		{
			"inputs": [
				{
					"internalType": "address",
					"name": "BoostAddress",
					"type": "address"
				},
				{
					"internalType": "address",
					"name": "ubAddress",
					"type": "address"
				},
				{
					"internalType": "address",
					"name": "",
					"type": "address"
				}
			],
			"stateMutability": "nonpayable",
			"type": "constructor"
		},
		{
			"inputs": [
				{
					"internalType": "address",
					"name": "owner",
					"type": "address"
				}
			],
			"name": "OwnableInvalidOwner",
			"type": "error"
		},
		{
			"inputs": [
				{
					"internalType": "address",
					"name": "account",
					"type": "address"
				}
			],
			"name": "OwnableUnauthorizedAccount",
			"type": "error"
		},
		{
			"anonymous": false,
			"inputs": [
				{
					"indexed": false,
					"internalType": "address",
					"name": "",
					"type": "address"
				}
			],
			"name": "Create",
			"type": "event"
		},
		{
			"anonymous": false,
			"inputs": [
				{
					"indexed": false,
					"internalType": "uint256",
					"name": "userid",
					"type": "uint256"
				},
				{
					"indexed": false,
					"internalType": "address",
					"name": "from",
					"type": "address"
				},
				{
					"indexed": false,
					"internalType": "uint256",
					"name": "amountA",
					"type": "uint256"
				},
				{
					"indexed": false,
					"internalType": "uint256",
					"name": "amountB",
					"type": "uint256"
				}
			],
			"name": "DestoryToken",
			"type": "event"
		},
		{
			"anonymous": false,
			"inputs": [
				{
					"indexed": true,
					"internalType": "address",
					"name": "previousOwner",
					"type": "address"
				},
				{
					"indexed": true,
					"internalType": "address",
					"name": "newOwner",
					"type": "address"
				}
			],
			"name": "OwnershipTransferred",
			"type": "event"
		},
		{
			"anonymous": false,
			"inputs": [
				{
					"indexed": false,
					"internalType": "address",
					"name": "to",
					"type": "address"
				},
				{
					"indexed": false,
					"internalType": "uint256",
					"name": "userid",
					"type": "uint256"
				},
				{
					"indexed": false,
					"internalType": "uint256",
					"name": "pledgeAmt",
					"type": "uint256"
				},
				{
					"indexed": false,
					"internalType": "uint256",
					"name": "mintAmt",
					"type": "uint256"
				},
				{
					"indexed": false,
					"internalType": "uint256",
					"name": "uBalance",
					"type": "uint256"
				},
				{
					"indexed": false,
					"internalType": "uint256",
					"name": "bBalance",
					"type": "uint256"
				}
			],
			"name": "Pledge",
			"type": "event"
		},
		{
			"anonymous": false,
			"inputs": [
				{
					"indexed": false,
					"internalType": "address",
					"name": "token",
					"type": "address"
				},
				{
					"indexed": false,
					"internalType": "address",
					"name": "to",
					"type": "address"
				},
				{
					"indexed": false,
					"internalType": "uint256",
					"name": "amount",
					"type": "uint256"
				}
			],
			"name": "Withdraw",
			"type": "event"
		},
		{
			"inputs": [],
			"name": "BOOST",
			"outputs": [
				{
					"internalType": "contract IERC20",
					"name": "",
					"type": "address"
				}
			],
			"stateMutability": "view",
			"type": "function"
		},
		{
			"inputs": [],
			"name": "USDT",
			"outputs": [
				{
					"internalType": "contract IERC20",
					"name": "",
					"type": "address"
				}
			],
			"stateMutability": "view",
			"type": "function"
		},
		{
			"inputs": [],
			"name": "USDTB",
			"outputs": [
				{
					"internalType": "contract IERC20",
					"name": "",
					"type": "address"
				}
			],
			"stateMutability": "view",
			"type": "function"
		},
		{
			"inputs": [
				{
					"internalType": "address",
					"name": "",
					"type": "address"
				}
			],
			"name": "accounts",
			"outputs": [
				{
					"internalType": "bool",
					"name": "",
					"type": "bool"
				}
			],
			"stateMutability": "view",
			"type": "function"
		},
		{
			"inputs": [],
			"name": "claimRate",
			"outputs": [
				{
					"internalType": "uint256",
					"name": "",
					"type": "uint256"
				}
			],
			"stateMutability": "view",
			"type": "function"
		},
		{
			"inputs": [
				{
					"internalType": "uint256",
					"name": "userid",
					"type": "uint256"
				}
			],
			"name": "create",
			"outputs": [],
			"stateMutability": "nonpayable",
			"type": "function"
		},
		{
			"inputs": [
				{
					"internalType": "uint256",
					"name": "userid",
					"type": "uint256"
				},
				{
					"internalType": "uint256",
					"name": "amountA",
					"type": "uint256"
				},
				{
					"internalType": "uint256",
					"name": "amountB",
					"type": "uint256"
				}
			],
			"name": "destoryToken",
			"outputs": [],
			"stateMutability": "nonpayable",
			"type": "function"
		},
		{
			"inputs": [],
			"name": "foundationPoint",
			"outputs": [
				{
					"internalType": "uint256",
					"name": "",
					"type": "uint256"
				}
			],
			"stateMutability": "view",
			"type": "function"
		},
		{
			"inputs": [],
			"name": "getFoundation",
			"outputs": [
				{
					"internalType": "address",
					"name": "",
					"type": "address"
				}
			],
			"stateMutability": "view",
			"type": "function"
		},
		{
			"inputs": [],
			"name": "getManager",
			"outputs": [
				{
					"internalType": "address",
					"name": "",
					"type": "address"
				}
			],
			"stateMutability": "view",
			"type": "function"
		},
		{
			"inputs": [],
			"name": "getPrice",
			"outputs": [
				{
					"internalType": "uint256",
					"name": "",
					"type": "uint256"
				}
			],
			"stateMutability": "view",
			"type": "function"
		},
		{
			"inputs": [
				{
					"internalType": "uint256",
					"name": "userid",
					"type": "uint256"
				}
			],
			"name": "getSaltByUserId",
			"outputs": [
				{
					"internalType": "bytes32",
					"name": "",
					"type": "bytes32"
				}
			],
			"stateMutability": "view",
			"type": "function"
		},
		{
			"inputs": [],
			"name": "getSystem",
			"outputs": [
				{
					"internalType": "address",
					"name": "",
					"type": "address"
				}
			],
			"stateMutability": "view",
			"type": "function"
		},
		{
			"inputs": [],
			"name": "getTokenReceiverBytecodeHash",
			"outputs": [
				{
					"internalType": "bytes32",
					"name": "",
					"type": "bytes32"
				}
			],
			"stateMutability": "pure",
			"type": "function"
		},
		{
			"inputs": [
				{
					"internalType": "uint256",
					"name": "userid",
					"type": "uint256"
				}
			],
			"name": "getUserAddr",
			"outputs": [
				{
					"internalType": "address",
					"name": "account",
					"type": "address"
				}
			],
			"stateMutability": "view",
			"type": "function"
		},
		{
			"inputs": [],
			"name": "initPrice",
			"outputs": [
				{
					"internalType": "uint256",
					"name": "",
					"type": "uint256"
				}
			],
			"stateMutability": "view",
			"type": "function"
		},
		{
			"inputs": [],
			"name": "mintRate",
			"outputs": [
				{
					"internalType": "uint256",
					"name": "",
					"type": "uint256"
				}
			],
			"stateMutability": "view",
			"type": "function"
		},
		{
			"inputs": [],
			"name": "owner",
			"outputs": [
				{
					"internalType": "address",
					"name": "",
					"type": "address"
				}
			],
			"stateMutability": "view",
			"type": "function"
		},
		{
			"inputs": [
				{
					"internalType": "uint256",
					"name": "userid",
					"type": "uint256"
				},
				{
					"internalType": "uint256",
					"name": "amount",
					"type": "uint256"
				}
			],
			"name": "pledge",
			"outputs": [],
			"stateMutability": "payable",
			"type": "function"
		},
		{
			"inputs": [
				{
					"internalType": "address",
					"name": "",
					"type": "address"
				}
			],
			"name": "pledgeCount",
			"outputs": [
				{
					"internalType": "uint256",
					"name": "",
					"type": "uint256"
				}
			],
			"stateMutability": "view",
			"type": "function"
		},
		{
			"inputs": [],
			"name": "pledgePool",
			"outputs": [
				{
					"internalType": "address",
					"name": "",
					"type": "address"
				}
			],
			"stateMutability": "view",
			"type": "function"
		},
		{
			"inputs": [],
			"name": "pledgePoolPoint",
			"outputs": [
				{
					"internalType": "uint256",
					"name": "",
					"type": "uint256"
				}
			],
			"stateMutability": "view",
			"type": "function"
		},
		{
			"inputs": [
				{
					"internalType": "address",
					"name": "",
					"type": "address"
				},
				{
					"internalType": "uint256",
					"name": "",
					"type": "uint256"
				}
			],
			"name": "pledges",
			"outputs": [
				{
					"internalType": "address",
					"name": "from",
					"type": "address"
				},
				{
					"internalType": "uint256",
					"name": "userid",
					"type": "uint256"
				},
				{
					"internalType": "uint256",
					"name": "amount",
					"type": "uint256"
				},
				{
					"internalType": "uint256",
					"name": "price",
					"type": "uint256"
				},
				{
					"internalType": "uint256",
					"name": "boost",
					"type": "uint256"
				},
				{
					"internalType": "uint256",
					"name": "amt",
					"type": "uint256"
				},
				{
					"internalType": "uint256",
					"name": "claimAmt",
					"type": "uint256"
				},
				{
					"internalType": "uint256",
					"name": "startTime",
					"type": "uint256"
				},
				{
					"internalType": "uint256",
					"name": "claimTime",
					"type": "uint256"
				},
				{
					"internalType": "bool",
					"name": "claimState",
					"type": "bool"
				}
			],
			"stateMutability": "view",
			"type": "function"
		},
		{
			"inputs": [],
			"name": "renounceOwnership",
			"outputs": [],
			"stateMutability": "nonpayable",
			"type": "function"
		},
		{
			"inputs": [
				{
					"internalType": "uint256",
					"name": "_claimRate",
					"type": "uint256"
				}
			],
			"name": "setClaimRate",
			"outputs": [],
			"stateMutability": "nonpayable",
			"type": "function"
		},
		{
			"inputs": [
				{
					"internalType": "address",
					"name": "account",
					"type": "address"
				}
			],
			"name": "setFoundation",
			"outputs": [],
			"stateMutability": "nonpayable",
			"type": "function"
		},
		{
			"inputs": [
				{
					"internalType": "uint256",
					"name": "point",
					"type": "uint256"
				}
			],
			"name": "setFoundationPoint",
			"outputs": [],
			"stateMutability": "nonpayable",
			"type": "function"
		},
		{
			"inputs": [
				{
					"internalType": "uint256",
					"name": "price",
					"type": "uint256"
				}
			],
			"name": "setInitPrice",
			"outputs": [],
			"stateMutability": "nonpayable",
			"type": "function"
		},
		{
			"inputs": [
				{
					"internalType": "address",
					"name": "account",
					"type": "address"
				}
			],
			"name": "setManager",
			"outputs": [],
			"stateMutability": "nonpayable",
			"type": "function"
		},
		{
			"inputs": [
				{
					"internalType": "uint256",
					"name": "_mintRate",
					"type": "uint256"
				}
			],
			"name": "setMintRate",
			"outputs": [],
			"stateMutability": "nonpayable",
			"type": "function"
		},
		{
			"inputs": [
				{
					"internalType": "uint256",
					"name": "userid",
					"type": "uint256"
				}
			],
			"name": "setPledgePool",
			"outputs": [],
			"stateMutability": "nonpayable",
			"type": "function"
		},
		{
			"inputs": [
				{
					"internalType": "uint256",
					"name": "point",
					"type": "uint256"
				}
			],
			"name": "setPledgePoolPoint",
			"outputs": [],
			"stateMutability": "nonpayable",
			"type": "function"
		},
		{
			"inputs": [
				{
					"internalType": "enum BoostProtocol.TokenType",
					"name": "tokenType",
					"type": "uint8"
				},
				{
					"internalType": "address",
					"name": "token",
					"type": "address"
				}
			],
			"name": "setToken",
			"outputs": [],
			"stateMutability": "nonpayable",
			"type": "function"
		},
		{
			"inputs": [
				{
					"internalType": "uint256",
					"name": "userid",
					"type": "uint256"
				},
				{
					"internalType": "uint256",
					"name": "amount",
					"type": "uint256"
				}
			],
			"name": "systemPledge",
			"outputs": [],
			"stateMutability": "nonpayable",
			"type": "function"
		},
		{
			"inputs": [],
			"name": "totalBoost",
			"outputs": [
				{
					"internalType": "uint256",
					"name": "",
					"type": "uint256"
				}
			],
			"stateMutability": "view",
			"type": "function"
		},
		{
			"inputs": [],
			"name": "totalPledge",
			"outputs": [
				{
					"internalType": "uint256",
					"name": "",
					"type": "uint256"
				}
			],
			"stateMutability": "view",
			"type": "function"
		},
		{
			"inputs": [],
			"name": "totalUsdt",
			"outputs": [
				{
					"internalType": "uint256",
					"name": "",
					"type": "uint256"
				}
			],
			"stateMutability": "view",
			"type": "function"
		},
		{
			"inputs": [
				{
					"internalType": "address",
					"name": "newOwner",
					"type": "address"
				}
			],
			"name": "transferOwnership",
			"outputs": [],
			"stateMutability": "nonpayable",
			"type": "function"
		},
		{
			"inputs": [
				{
					"internalType": "enum BoostProtocol.TokenType",
					"name": "tokenType",
					"type": "uint8"
				},
				{
					"internalType": "address",
					"name": "to",
					"type": "address"
				},
				{
					"internalType": "uint256",
					"name": "amount",
					"type": "uint256"
				}
			],
			"name": "withdraw",
			"outputs": [],
			"stateMutability": "nonpayable",
			"type": "function"
		}
	]
}